{
  "contractName": "Authentication",
  "abi": [
    {
      "inputs": [
        {
          "internalType": "address",
          "name": "root",
          "type": "address"
        }
      ],
      "stateMutability": "nonpayable",
      "type": "constructor"
    },
    {
      "anonymous": false,
      "inputs": [
        {
          "indexed": true,
          "internalType": "bytes32",
          "name": "role",
          "type": "bytes32"
        },
        {
          "indexed": true,
          "internalType": "bytes32",
          "name": "previousAdminRole",
          "type": "bytes32"
        },
        {
          "indexed": true,
          "internalType": "bytes32",
          "name": "newAdminRole",
          "type": "bytes32"
        }
      ],
      "name": "RoleAdminChanged",
      "type": "event"
    },
    {
      "anonymous": false,
      "inputs": [
        {
          "indexed": true,
          "internalType": "bytes32",
          "name": "role",
          "type": "bytes32"
        },
        {
          "indexed": true,
          "internalType": "address",
          "name": "account",
          "type": "address"
        },
        {
          "indexed": true,
          "internalType": "address",
          "name": "sender",
          "type": "address"
        }
      ],
      "name": "RoleGranted",
      "type": "event"
    },
    {
      "anonymous": false,
      "inputs": [
        {
          "indexed": true,
          "internalType": "bytes32",
          "name": "role",
          "type": "bytes32"
        },
        {
          "indexed": true,
          "internalType": "address",
          "name": "account",
          "type": "address"
        },
        {
          "indexed": true,
          "internalType": "address",
          "name": "sender",
          "type": "address"
        }
      ],
      "name": "RoleRevoked",
      "type": "event"
    },
    {
      "inputs": [],
      "name": "DEFAULT_ADMIN_ROLE",
      "outputs": [
        {
          "internalType": "bytes32",
          "name": "",
          "type": "bytes32"
        }
      ],
      "stateMutability": "view",
      "type": "function",
      "constant": true
    },
    {
      "inputs": [],
      "name": "USER_ROLE",
      "outputs": [
        {
          "internalType": "bytes32",
          "name": "",
          "type": "bytes32"
        }
      ],
      "stateMutability": "view",
      "type": "function",
      "constant": true
    },
    {
      "inputs": [
        {
          "internalType": "bytes32",
          "name": "role",
          "type": "bytes32"
        }
      ],
      "name": "getRoleAdmin",
      "outputs": [
        {
          "internalType": "bytes32",
          "name": "",
          "type": "bytes32"
        }
      ],
      "stateMutability": "view",
      "type": "function",
      "constant": true
    },
    {
      "inputs": [
        {
          "internalType": "bytes32",
          "name": "role",
          "type": "bytes32"
        },
        {
          "internalType": "address",
          "name": "account",
          "type": "address"
        }
      ],
      "name": "grantRole",
      "outputs": [],
      "stateMutability": "nonpayable",
      "type": "function"
    },
    {
      "inputs": [
        {
          "internalType": "bytes32",
          "name": "role",
          "type": "bytes32"
        },
        {
          "internalType": "address",
          "name": "account",
          "type": "address"
        }
      ],
      "name": "hasRole",
      "outputs": [
        {
          "internalType": "bool",
          "name": "",
          "type": "bool"
        }
      ],
      "stateMutability": "view",
      "type": "function",
      "constant": true
    },
    {
      "inputs": [
        {
          "internalType": "bytes32",
          "name": "role",
          "type": "bytes32"
        },
        {
          "internalType": "address",
          "name": "account",
          "type": "address"
        }
      ],
      "name": "renounceRole",
      "outputs": [],
      "stateMutability": "nonpayable",
      "type": "function"
    },
    {
      "inputs": [
        {
          "internalType": "bytes32",
          "name": "role",
          "type": "bytes32"
        },
        {
          "internalType": "address",
          "name": "account",
          "type": "address"
        }
      ],
      "name": "revokeRole",
      "outputs": [],
      "stateMutability": "nonpayable",
      "type": "function"
    },
    {
      "inputs": [
        {
          "internalType": "bytes4",
          "name": "interfaceId",
          "type": "bytes4"
        }
      ],
      "name": "supportsInterface",
      "outputs": [
        {
          "internalType": "bool",
          "name": "",
          "type": "bool"
        }
      ],
      "stateMutability": "view",
      "type": "function",
      "constant": true
    },
    {
      "inputs": [
        {
          "internalType": "address",
          "name": "account",
          "type": "address"
        }
      ],
      "name": "isAdmin",
      "outputs": [
        {
          "internalType": "bool",
          "name": "",
          "type": "bool"
        }
      ],
      "stateMutability": "view",
      "type": "function",
      "constant": true
    },
    {
      "inputs": [
        {
          "internalType": "address",
          "name": "account",
          "type": "address"
        }
      ],
      "name": "isUser",
      "outputs": [
        {
          "internalType": "bool",
          "name": "",
          "type": "bool"
        }
      ],
      "stateMutability": "view",
      "type": "function",
      "constant": true
    },
    {
      "inputs": [
        {
          "internalType": "address",
          "name": "account",
          "type": "address"
        }
      ],
      "name": "addUser",
      "outputs": [],
      "stateMutability": "nonpayable",
      "type": "function"
    },
    {
      "inputs": [
        {
          "internalType": "address",
          "name": "account",
          "type": "address"
        }
      ],
      "name": "addAdmin",
      "outputs": [],
      "stateMutability": "nonpayable",
      "type": "function"
    },
    {
      "inputs": [
        {
          "internalType": "address",
          "name": "account",
          "type": "address"
        }
      ],
      "name": "removeUser",
      "outputs": [],
      "stateMutability": "nonpayable",
      "type": "function"
    },
    {
      "inputs": [],
      "name": "renounceAdmin",
      "outputs": [],
      "stateMutability": "nonpayable",
      "type": "function"
    },
    {
      "inputs": [
        {
          "internalType": "address",
          "name": "_address",
          "type": "address"
        },
        {
          "internalType": "string",
          "name": "_name",
          "type": "string"
        },
        {
          "internalType": "string",
          "name": "_password",
          "type": "string"
        }
      ],
      "name": "registerUser",
      "outputs": [
        {
          "internalType": "bool",
          "name": "",
          "type": "bool"
        }
      ],
      "stateMutability": "nonpayable",
      "type": "function"
    },
    {
      "inputs": [
        {
          "internalType": "address",
          "name": "_address",
          "type": "address"
        },
        {
          "internalType": "string",
          "name": "_name",
          "type": "string"
        },
        {
          "internalType": "string",
          "name": "_password",
          "type": "string"
        }
      ],
      "name": "loginUser",
      "outputs": [
        {
          "internalType": "bool",
          "name": "",
          "type": "bool"
        }
      ],
      "stateMutability": "nonpayable",
      "type": "function"
    },
    {
      "inputs": [
        {
          "internalType": "address",
          "name": "_address",
          "type": "address"
        }
      ],
      "name": "checkIsUserLogged",
      "outputs": [
        {
          "internalType": "bool",
          "name": "",
          "type": "bool"
        }
      ],
      "stateMutability": "view",
      "type": "function",
      "constant": true
    },
    {
      "inputs": [
        {
          "internalType": "address",
          "name": "_address",
          "type": "address"
        }
      ],
      "name": "logoutUser",
      "outputs": [],
      "stateMutability": "nonpayable",
      "type": "function"
    },
    {
      "inputs": [
        {
          "internalType": "address",
          "name": "_address",
          "type": "address"
        },
        {
          "internalType": "string",
          "name": "_name",
          "type": "string"
        },
        {
          "internalType": "string",
          "name": "_password",
          "type": "string"
        }
      ],
      "name": "registerAdmin",
      "outputs": [
        {
          "internalType": "bool",
          "name": "",
          "type": "bool"
        }
      ],
      "stateMutability": "nonpayable",
      "type": "function"
    },
    {
      "inputs": [
        {
          "internalType": "address",
          "name": "_address",
          "type": "address"
        },
        {
          "internalType": "string",
          "name": "_name",
          "type": "string"
        },
        {
          "internalType": "string",
          "name": "_password",
          "type": "string"
        }
      ],
      "name": "loginAdmin",
      "outputs": [
        {
          "internalType": "bool",
          "name": "",
          "type": "bool"
        }
      ],
      "stateMutability": "nonpayable",
      "type": "function"
    },
    {
      "inputs": [
        {
          "internalType": "address",
          "name": "_address",
          "type": "address"
        }
      ],
      "name": "checkIsAdminLogged",
      "outputs": [
        {
          "internalType": "bool",
          "name": "",
          "type": "bool"
        }
      ],
      "stateMutability": "view",
      "type": "function",
      "constant": true
    },
    {
      "inputs": [
        {
          "internalType": "address",
          "name": "_address",
          "type": "address"
        }
      ],
      "name": "logoutAdmin",
      "outputs": [],
      "stateMutability": "nonpayable",
      "type": "function"
    }
  ],
  "bytecode": "0x60806040523480156200001157600080fd5b50604051620025493803806200254983398181016040528101906200003791906200029a565b6200004c6000801b826200008860201b60201c565b620000817f2db9fd3d099848027c2383d0a083396f6c41510d7acfd92adc99b6cffcf31e966000801b6200009e60201b60201c565b5062000314565b6200009a82826200010160201b60201c565b5050565b6000620000b183620001f260201b60201c565b905081600080858152602001908152602001600020600101819055508181847fbd79b86ffe0ab8e8776151514217cd7cacd52c909f66475c3af44e129f0b00ff60405160405180910390a4505050565b6200011382826200021160201b60201c565b620001ee57600160008084815260200190815260200160002060000160008373ffffffffffffffffffffffffffffffffffffffff1673ffffffffffffffffffffffffffffffffffffffff16815260200190815260200160002060006101000a81548160ff021916908315150217905550620001936200027b60201b60201c565b73ffffffffffffffffffffffffffffffffffffffff168173ffffffffffffffffffffffffffffffffffffffff16837f2f8788117e7eff1d82e926ec794901d17c78024a50270940304540a733656f0d60405160405180910390a45b5050565b6000806000838152602001908152602001600020600101549050919050565b600080600084815260200190815260200160002060000160008373ffffffffffffffffffffffffffffffffffffffff1673ffffffffffffffffffffffffffffffffffffffff16815260200190815260200160002060009054906101000a900460ff16905092915050565b600033905090565b6000815190506200029481620002fa565b92915050565b600060208284031215620002ad57600080fd5b6000620002bd8482850162000283565b91505092915050565b6000620002d382620002da565b9050919050565b600073ffffffffffffffffffffffffffffffffffffffff82169050919050565b6200030581620002c6565b81146200031157600080fd5b50565b61222580620003246000396000f3fe608060405234801561001057600080fd5b50600436106101425760003560e01c8063421b2d8b116100b857806391d148541161007c57806391d148541461039757806398575188146103c757806398711c17146103e3578063a217fddf14610413578063d547741f14610431578063db0c87c91461044d57610142565b8063421b2d8b146103095780634ad407a314610325578063645cf80f1461035557806370480275146103715780638bad0c0a1461038d57610142565b806324d7806c1161010a57806324d7806c14610211578063297f7b39146102415780632f2ff15d1461027157806336568abe1461028d57806340f1128b146102a95780634209fff1146102d957610142565b806301ffc9a71461014757806306f22b041461017757806309df5060146101a757806313119161146101c3578063248a9ca3146101e1575b600080fd5b610161600480360381019061015c9190611a8d565b61047d565b60405161016e9190611dcb565b60405180910390f35b610191600480360381019061018c91906119a9565b6104f7565b60405161019e9190611dcb565b60405180910390f35b6101c160048036038101906101bc9190611980565b6106be565b005b6101cb61071c565b6040516101d89190611de6565b60405180910390f35b6101fb60048036038101906101f69190611a28565b610740565b6040516102089190611de6565b60405180910390f35b61022b60048036038101906102269190611980565b61075f565b6040516102389190611dcb565b60405180910390f35b61025b60048036038101906102569190611980565b610775565b6040516102689190611dcb565b60405180910390f35b61028b60048036038101906102869190611a51565b6107ce565b005b6102a760048036038101906102a29190611a51565b6107ef565b005b6102c360048036038101906102be91906119a9565b610872565b6040516102d09190611dcb565b60405180910390f35b6102f360048036038101906102ee9190611980565b610a3a565b6040516103009190611dcb565b60405180910390f35b610323600480360381019061031e9190611980565b610a6d565b005b61033f600480360381019061033a91906119a9565b610b28565b60405161034c9190611dcb565b60405180910390f35b61036f600480360381019061036a9190611980565b610da5565b005b61038b60048036038101906103869190611980565b610e03565b005b610395610e6d565b005b6103b160048036038101906103ac9190611a51565b610e7c565b6040516103be9190611dcb565b60405180910390f35b6103e160048036038101906103dc9190611980565b610ee6565b005b6103fd60048036038101906103f89190611980565b610f5b565b60405161040a9190611dcb565b60405180910390f35b61041b610fb4565b6040516104289190611de6565b60405180910390f35b61044b60048036038101906104469190611a51565b610fbb565b005b610467600480360381019061046291906119a9565b610fdc565b6040516104749190611dcb565b60405180910390f35b60007f7965db0b000000000000000000000000000000000000000000000000000000007bffffffffffffffffffffffffffffffffffffffffffffffffffffffff1916827bffffffffffffffffffffffffffffffffffffffffffffffffffffffff191614806104f057506104ef82611258565b5b9050919050565b60008160405160200161050a9190611d63565b60405160208183030381529060405280519060200120600160008673ffffffffffffffffffffffffffffffffffffffff1673ffffffffffffffffffffffffffffffffffffffff168152602001908152602001600020600201541480156105fc57508260405160200161057c9190611d63565b60405160208183030381529060405280519060200120600160008673ffffffffffffffffffffffffffffffffffffffff1673ffffffffffffffffffffffffffffffffffffffff1681526020019081526020016000206001016040516020016105e49190611d7a565b60405160208183030381529060405280519060200120145b156106b25760018060008673ffffffffffffffffffffffffffffffffffffffff1673ffffffffffffffffffffffffffffffffffffffff16815260200190815260200160002060030160006101000a81548160ff021916908315150217905550600160008573ffffffffffffffffffffffffffffffffffffffff1673ffffffffffffffffffffffffffffffffffffffff16815260200190815260200160002060030160009054906101000a900460ff1690506106b7565b600090505b9392505050565b6000600160008373ffffffffffffffffffffffffffffffffffffffff1673ffffffffffffffffffffffffffffffffffffffff16815260200190815260200160002060030160006101000a81548160ff02191690831515021790555050565b7f2db9fd3d099848027c2383d0a083396f6c41510d7acfd92adc99b6cffcf31e9681565b6000806000838152602001908152602001600020600101549050919050565b600061076e6000801b83610e7c565b9050919050565b6000600160008373ffffffffffffffffffffffffffffffffffffffff1673ffffffffffffffffffffffffffffffffffffffff16815260200190815260200160002060030160009054906101000a900460ff169050919050565b6107d782610740565b6107e0816112c2565b6107ea83836112d6565b505050565b6107f76113b6565b73ffffffffffffffffffffffffffffffffffffffff168173ffffffffffffffffffffffffffffffffffffffff1614610864576040517f08c379a000000000000000000000000000000000000000000000000000000000815260040161085b90611e83565b60405180910390fd5b61086e82826113be565b5050565b6000816040516020016108859190611d63565b60405160208183030381529060405280519060200120600260008673ffffffffffffffffffffffffffffffffffffffff1673ffffffffffffffffffffffffffffffffffffffff168152602001908152602001600020600201541480156109775750826040516020016108f79190611d63565b60405160208183030381529060405280519060200120600260008673ffffffffffffffffffffffffffffffffffffffff1673ffffffffffffffffffffffffffffffffffffffff16815260200190815260200160002060010160405160200161095f9190611d7a565b60405160208183030381529060405280519060200120145b15610a2e576001600260008673ffffffffffffffffffffffffffffffffffffffff1673ffffffffffffffffffffffffffffffffffffffff16815260200190815260200160002060030160006101000a81548160ff021916908315150217905550600260008573ffffffffffffffffffffffffffffffffffffffff1673ffffffffffffffffffffffffffffffffffffffff16815260200190815260200160002060030160009054906101000a900460ff169050610a33565b600090505b9392505050565b6000610a667f2db9fd3d099848027c2383d0a083396f6c41510d7acfd92adc99b6cffcf31e9683610e7c565b9050919050565b610a763361075f565b610ab5576040517f08c379a0000000000000000000000000000000000000000000000000000000008152600401610aac90611e63565b60405180910390fd5b610ac26000801b82610e7c565b1580610af55750610af37f2db9fd3d099848027c2383d0a083396f6c41510d7acfd92adc99b6cffcf31e9682610e7c565b155b15610b2557610b247f2db9fd3d099848027c2383d0a083396f6c41510d7acfd92adc99b6cffcf31e96826107ce565b5b50565b60008073ffffffffffffffffffffffffffffffffffffffff16600260008673ffffffffffffffffffffffffffffffffffffffff1673ffffffffffffffffffffffffffffffffffffffff16815260200190815260200160002060000160009054906101000a900473ffffffffffffffffffffffffffffffffffffffff1673ffffffffffffffffffffffffffffffffffffffff1614610bfa576040517f08c379a0000000000000000000000000000000000000000000000000000000008152600401610bf190611e43565b60405180910390fd5b83600260008673ffffffffffffffffffffffffffffffffffffffff1673ffffffffffffffffffffffffffffffffffffffff16815260200190815260200160002060000160006101000a81548173ffffffffffffffffffffffffffffffffffffffff021916908373ffffffffffffffffffffffffffffffffffffffff16021790555082600260008673ffffffffffffffffffffffffffffffffffffffff1673ffffffffffffffffffffffffffffffffffffffff1681526020019081526020016000206001019080519060200190610cd1929190611836565b5081604051602001610ce39190611d63565b60405160208183030381529060405280519060200120600260008673ffffffffffffffffffffffffffffffffffffffff1673ffffffffffffffffffffffffffffffffffffffff168152602001908152602001600020600201819055506001600260008673ffffffffffffffffffffffffffffffffffffffff1673ffffffffffffffffffffffffffffffffffffffff16815260200190815260200160002060030160006101000a81548160ff021916908315150217905550600190509392505050565b6000600260008373ffffffffffffffffffffffffffffffffffffffff1673ffffffffffffffffffffffffffffffffffffffff16815260200190815260200160002060030160006101000a81548160ff02191690831515021790555050565b610e0c3361075f565b610e4b576040517f08c379a0000000000000000000000000000000000000000000000000000000008152600401610e4290611e63565b60405180910390fd5b610e586000801b82610e7c565b610e6a57610e696000801b826107ce565b5b50565b610e7a6000801b336107ef565b565b600080600084815260200190815260200160002060000160008373ffffffffffffffffffffffffffffffffffffffff1673ffffffffffffffffffffffffffffffffffffffff16815260200190815260200160002060009054906101000a900460ff16905092915050565b610eef3361075f565b610f2e576040517f08c379a0000000000000000000000000000000000000000000000000000000008152600401610f2590611e63565b60405180910390fd5b610f587f2db9fd3d099848027c2383d0a083396f6c41510d7acfd92adc99b6cffcf31e9682610fbb565b50565b6000600260008373ffffffffffffffffffffffffffffffffffffffff1673ffffffffffffffffffffffffffffffffffffffff16815260200190815260200160002060030160009054906101000a900460ff169050919050565b6000801b81565b610fc482610740565b610fcd816112c2565b610fd783836113be565b505050565b60008073ffffffffffffffffffffffffffffffffffffffff16600160008673ffffffffffffffffffffffffffffffffffffffff1673ffffffffffffffffffffffffffffffffffffffff16815260200190815260200160002060000160009054906101000a900473ffffffffffffffffffffffffffffffffffffffff1673ffffffffffffffffffffffffffffffffffffffff16146110ae576040517f08c379a00000000000000000000000000000000000000000000000000000000081526004016110a590611e43565b60405180910390fd5b83600160008673ffffffffffffffffffffffffffffffffffffffff1673ffffffffffffffffffffffffffffffffffffffff16815260200190815260200160002060000160006101000a81548173ffffffffffffffffffffffffffffffffffffffff021916908373ffffffffffffffffffffffffffffffffffffffff16021790555082600160008673ffffffffffffffffffffffffffffffffffffffff1673ffffffffffffffffffffffffffffffffffffffff1681526020019081526020016000206001019080519060200190611185929190611836565b50816040516020016111979190611d63565b60405160208183030381529060405280519060200120600160008673ffffffffffffffffffffffffffffffffffffffff1673ffffffffffffffffffffffffffffffffffffffff1681526020019081526020016000206002018190555060018060008673ffffffffffffffffffffffffffffffffffffffff1673ffffffffffffffffffffffffffffffffffffffff16815260200190815260200160002060030160006101000a81548160ff021916908315150217905550600190509392505050565b60007f01ffc9a7000000000000000000000000000000000000000000000000000000007bffffffffffffffffffffffffffffffffffffffffffffffffffffffff1916827bffffffffffffffffffffffffffffffffffffffffffffffffffffffff1916149050919050565b6112d3816112ce6113b6565b61149f565b50565b6112e08282610e7c565b6113b257600160008084815260200190815260200160002060000160008373ffffffffffffffffffffffffffffffffffffffff1673ffffffffffffffffffffffffffffffffffffffff16815260200190815260200160002060006101000a81548160ff0219169083151502179055506113576113b6565b73ffffffffffffffffffffffffffffffffffffffff168173ffffffffffffffffffffffffffffffffffffffff16837f2f8788117e7eff1d82e926ec794901d17c78024a50270940304540a733656f0d60405160405180910390a45b5050565b600033905090565b6113c88282610e7c565b1561149b57600080600084815260200190815260200160002060000160008373ffffffffffffffffffffffffffffffffffffffff1673ffffffffffffffffffffffffffffffffffffffff16815260200190815260200160002060006101000a81548160ff0219169083151502179055506114406113b6565b73ffffffffffffffffffffffffffffffffffffffff168173ffffffffffffffffffffffffffffffffffffffff16837ff6391f5c32d9c69d2a47ea670b442974b53935d1edc7fd64eb21e047a839171b60405160405180910390a45b5050565b6114a98282610e7c565b611538576114ce8173ffffffffffffffffffffffffffffffffffffffff16601461153c565b6114dc8360001c602061153c565b6040516020016114ed929190611d91565b6040516020818303038152906040526040517f08c379a000000000000000000000000000000000000000000000000000000000815260040161152f9190611e01565b60405180910390fd5b5050565b60606000600283600261154f9190611f96565b6115599190611f40565b67ffffffffffffffff811115611598577f4e487b7100000000000000000000000000000000000000000000000000000000600052604160045260246000fd5b6040519080825280601f01601f1916602001820160405280156115ca5781602001600182028036833780820191505090505b5090507f300000000000000000000000000000000000000000000000000000000000000081600081518110611628577f4e487b7100000000000000000000000000000000000000000000000000000000600052603260045260246000fd5b60200101907effffffffffffffffffffffffffffffffffffffffffffffffffffffffffffff1916908160001a9053507f7800000000000000000000000000000000000000000000000000000000000000816001815181106116b2577f4e487b7100000000000000000000000000000000000000000000000000000000600052603260045260246000fd5b60200101907effffffffffffffffffffffffffffffffffffffffffffffffffffffffffffff1916908160001a905350600060018460026116f29190611f96565b6116fc9190611f40565b90505b60018111156117e8577f3031323334353637383961626364656600000000000000000000000000000000600f861660108110611764577f4e487b7100000000000000000000000000000000000000000000000000000000600052603260045260246000fd5b1a60f81b8282815181106117a1577f4e487b7100000000000000000000000000000000000000000000000000000000600052603260045260246000fd5b60200101907effffffffffffffffffffffffffffffffffffffffffffffffffffffffffffff1916908160001a905350600485901c9450806117e1906120b0565b90506116ff565b506000841461182c576040517f08c379a000000000000000000000000000000000000000000000000000000000815260040161182390611e23565b60405180910390fd5b8091505092915050565b828054611842906120da565b90600052602060002090601f01602090048101928261186457600085556118ab565b82601f1061187d57805160ff19168380011785556118ab565b828001600101855582156118ab579182015b828111156118aa57825182559160200191906001019061188f565b5b5090506118b891906118bc565b5090565b5b808211156118d55760008160009055506001016118bd565b5090565b60006118ec6118e784611ed4565b611ea3565b90508281526020810184848401111561190457600080fd5b61190f84828561206e565b509392505050565b600081359050611926816121aa565b92915050565b60008135905061193b816121c1565b92915050565b600081359050611950816121d8565b92915050565b600082601f83011261196757600080fd5b81356119778482602086016118d9565b91505092915050565b60006020828403121561199257600080fd5b60006119a084828501611917565b91505092915050565b6000806000606084860312156119be57600080fd5b60006119cc86828701611917565b935050602084013567ffffffffffffffff8111156119e957600080fd5b6119f586828701611956565b925050604084013567ffffffffffffffff811115611a1257600080fd5b611a1e86828701611956565b9150509250925092565b600060208284031215611a3a57600080fd5b6000611a488482850161192c565b91505092915050565b60008060408385031215611a6457600080fd5b6000611a728582860161192c565b9250506020611a8385828601611917565b9150509250929050565b600060208284031215611a9f57600080fd5b6000611aad84828501611941565b91505092915050565b611abf81612002565b82525050565b611ace8161200e565b82525050565b6000611adf82611f19565b611ae98185611f24565b9350611af981856020860161207d565b611b0281612199565b840191505092915050565b6000611b1882611f19565b611b228185611f35565b9350611b3281856020860161207d565b80840191505092915050565b60008154611b4b816120da565b611b558186611f35565b94506001821660008114611b705760018114611b8157611bb4565b60ff19831686528186019350611bb4565b611b8a85611f04565b60005b83811015611bac57815481890152600182019150602081019050611b8d565b838801955050505b50505092915050565b6000611bca602083611f24565b91507f537472696e67733a20686578206c656e67746820696e73756666696369656e746000830152602082019050919050565b6000611c0a601283611f24565b91507f616c7265616479207265676973746572656400000000000000000000000000006000830152602082019050919050565b6000611c4a601583611f24565b91507f5265737472696374656420746f2061646d696e732e00000000000000000000006000830152602082019050919050565b6000611c8a601783611f35565b91507f416363657373436f6e74726f6c3a206163636f756e74200000000000000000006000830152601782019050919050565b6000611cca601183611f35565b91507f206973206d697373696e6720726f6c65200000000000000000000000000000006000830152601182019050919050565b6000611d0a602f83611f24565b91507f416363657373436f6e74726f6c3a2063616e206f6e6c792072656e6f756e636560008301527f20726f6c657320666f722073656c6600000000000000000000000000000000006020830152604082019050919050565b6000611d6f8284611b0d565b915081905092915050565b6000611d868284611b3e565b915081905092915050565b6000611d9c82611c7d565b9150611da88285611b0d565b9150611db382611cbd565b9150611dbf8284611b0d565b91508190509392505050565b6000602082019050611de06000830184611ab6565b92915050565b6000602082019050611dfb6000830184611ac5565b92915050565b60006020820190508181036000830152611e1b8184611ad4565b905092915050565b60006020820190508181036000830152611e3c81611bbd565b9050919050565b60006020820190508181036000830152611e5c81611bfd565b9050919050565b60006020820190508181036000830152611e7c81611c3d565b9050919050565b60006020820190508181036000830152611e9c81611cfd565b9050919050565b6000604051905081810181811067ffffffffffffffff82111715611eca57611ec961216a565b5b8060405250919050565b600067ffffffffffffffff821115611eef57611eee61216a565b5b601f19601f8301169050602081019050919050565b60008190508160005260206000209050919050565b600081519050919050565b600082825260208201905092915050565b600081905092915050565b6000611f4b82612064565b9150611f5683612064565b9250827fffffffffffffffffffffffffffffffffffffffffffffffffffffffffffffffff03821115611f8b57611f8a61210c565b5b828201905092915050565b6000611fa182612064565b9150611fac83612064565b9250817fffffffffffffffffffffffffffffffffffffffffffffffffffffffffffffffff0483118215151615611fe557611fe461210c565b5b828202905092915050565b6000611ffb82612044565b9050919050565b60008115159050919050565b6000819050919050565b60007fffffffff0000000000000000000000000000000000000000000000000000000082169050919050565b600073ffffffffffffffffffffffffffffffffffffffff82169050919050565b6000819050919050565b82818337600083830152505050565b60005b8381101561209b578082015181840152602081019050612080565b838111156120aa576000848401525b50505050565b60006120bb82612064565b915060008214156120cf576120ce61210c565b5b600182039050919050565b600060028204905060018216806120f257607f821691505b602082108114156121065761210561213b565b5b50919050565b7f4e487b7100000000000000000000000000000000000000000000000000000000600052601160045260246000fd5b7f4e487b7100000000000000000000000000000000000000000000000000000000600052602260045260246000fd5b7f4e487b7100000000000000000000000000000000000000000000000000000000600052604160045260246000fd5b6000601f19601f8301169050919050565b6121b381611ff0565b81146121be57600080fd5b50565b6121ca8161200e565b81146121d557600080fd5b50565b6121e181612018565b81146121ec57600080fd5b5056fea26469706673582212201e7e5d14f5137bbaba30964d2d90a9e1b76994251a64689d3330d41ba607009264736f6c63430008000033",
  "immutableReferences": {},
  "source": "// SPDX-License-Identifier: MIT\n\n/********************************************************************************************** \n* Questo smart contract implementa una configurazione tra admin e utenti:                     *\n*                                                                                             *\n* -  DEFAULT_ADMIN_ROLE  il ruolo di admin di USER (default);                                *\n* -  l'indirizzo passato al costruttore  l'admin iniziale;                                   *\n* -  gli admin possono aggiungere altri amministratori;                                       *\n* -  gli admin possono concedere e revocare le autorizzazioni utente a qualsiasi account;     *\n* -  l'unico modo per un admin di perdere il proprio ruolo di admin  di rinunciarvi.         *\n*                                                                                             *\n* Quando un utente o un admin si registrano entrambi non hanno un ruolo che verr asseggnato  *\n* in seguito dall'admin con \"addUser\" o \"addAdmin\".                                           *\n*                                                                                             *\n***********************************************************************************************/\n\npragma solidity ^0.8.0;\n\nimport \"@openzeppelin/contracts/access/AccessControl.sol\";\n\ncontract Authentication is AccessControl {\n    bytes32 public constant USER_ROLE = keccak256(\"USER\");\n    \n    struct User {\n        address addr;\n        string name;\n        bytes32 password;\n        bool isUserLoggedIn;\n    }\n\n    mapping(address => User) user;\n    mapping(address => Admin) admin;\n\n    constructor(address root) {\n        _setupRole(DEFAULT_ADMIN_ROLE, root);\n        _setRoleAdmin(USER_ROLE, DEFAULT_ADMIN_ROLE);\n    }\n\n    /*Ristretto ai membri che hanno l'admin role.*/\n    modifier onlyAdmin(){\n        require(isAdmin(msg.sender), \"Restricted to admins.\");\n        _;\n    }\n\n    /*Ristretto ai membri che hanno l'user role.*/\n    modifier onlyUser(){\n        require(isUser(msg.sender), \"Restricted to users.\");\n        _;\n    }\n\n    /*Ritorna 'true' se l'account ha il ruolo di admin.*/\n    function isAdmin(address account) public virtual view returns (bool) {\n        return hasRole(DEFAULT_ADMIN_ROLE, account);\n    }\n    \n    /*Ritorna 'true' se l'account ha il ruolo di user.*/\n    function isUser(address account) public virtual view returns (bool) {\n        return hasRole(USER_ROLE, account);\n    }\n\n    /*Aggiunge un account con il ruolo di user (lo possono fare solo gli admin).*/\n    function addUser(address account) public virtual onlyAdmin {\n        if(!hasRole(DEFAULT_ADMIN_ROLE, account) || !hasRole(USER_ROLE, account))\n            grantRole(USER_ROLE, account);\n    }\n\n    /*Aggiunge un account con il ruolo di admin (lo possono fare solo gli admin).*/\n    function addAdmin(address account) public virtual onlyAdmin {\n        if(!hasRole(DEFAULT_ADMIN_ROLE, account))\n            grantRole(DEFAULT_ADMIN_ROLE, account);\n    }\n\n    /*Rimuove un account dal ruolo di user (lo possono fare solo gli admin).*/\n    function removeUser(address account) public virtual onlyAdmin {\n        revokeRole(USER_ROLE, account);\n    }\n    \n    /*Un admin rinucia ad esserlo.*/\n    function renounceAdmin() public virtual {\n        renounceRole(DEFAULT_ADMIN_ROLE, msg.sender);\n    }\n\n\n    /************************************************************************\n    * Nella funzione di registrazione dell'utente, se l'utente non si  gi  \n    * registrato i suoi dati vengono registrati sulla blockchain.\n    */\n    function registerUser(\n        address _address,\n        string memory _name,\n        string memory _password\n    ) public returns (bool) {\n        require(user[_address].addr == address(0x0000000000000000000000000000000000000000), \"already registered\");\n\n        user[_address].addr = _address;\n        user[_address].name = _name;\n        user[_address].password = keccak256(abi.encodePacked(_password));\n        user[_address].isUserLoggedIn = true;\n        return true;\n    }\n\n    /***********************************************************************\n    * La funzione di login fornisce la possibilit di accedere alla DApp   *\n    * e la modifica del campo isUserLoggedIn su true: questo significa che *\n    * l'utente accede correttamente.                                       *\n    ************************************************************************/\n    function loginUser(address _address, string memory _name, string memory _password) public returns (bool) {\n        //keccak256(abi.encodePacked(...))  usato per comparare le stringhe e richiede meno gas\n        if (user[_address].password == keccak256(abi.encodePacked(_password)) &&\n            keccak256(abi.encodePacked(user[_address].name)) == keccak256(abi.encodePacked(_name))) {\n\n            user[_address].isUserLoggedIn = true;\n            return user[_address].isUserLoggedIn;\n        } else \n            return false;\n    }\n\n    // verifica se l'utente  loggato o meno.\n    function checkIsUserLogged(address _address) public view returns (bool){\n        return user[_address].isUserLoggedIn;\n    }\n\n    // logout dell'utente\n    function logoutUser(address _address) public {\n        user[_address].isUserLoggedIn = false;\n    }\n\n\n    struct Admin {\n        address adminAddress;\n        string name;\n        bytes32 password;\n        bool isAdminLoggedIn;\n    }\n    \n    function registerAdmin(\n        address _address,\n        string memory _name,\n        string memory _password\n    ) public returns (bool) {\n        require(admin[_address].adminAddress == address(0x0000000000000000000000000000000000000000), \"already registered\");\n\n        admin[_address].adminAddress = _address;\n        admin[_address].name = _name;\n        admin[_address].password = keccak256(abi.encodePacked(_password));\n        admin[_address].isAdminLoggedIn = true;\n        return true;\n    }\n\n    function loginAdmin(address _address, string memory _name, string memory _password) public returns (bool) {\n        if (admin[_address].password == keccak256(abi.encodePacked(_password)) &&\n            keccak256(abi.encodePacked(admin[_address].name)) == keccak256(abi.encodePacked(_name))) {\n\n            admin[_address].isAdminLoggedIn = true;\n            return admin[_address].isAdminLoggedIn;\n        } else \n            return false;\n    }\n\n    // verifica se l'admin  loggato o meno.\n    function checkIsAdminLogged(address _address) public view returns (bool) {\n        return admin[_address].isAdminLoggedIn;\n    }\n\n    // logout dell'admin\n    function logoutAdmin(address _address) public {\n        admin[_address].isAdminLoggedIn = false;\n    }\n}",
  "sourcePath": "/home/alberto/Documents/Github/Blockchain-Authentication/KryptoAuth/src/main/smart contract/contracts/Authentication.sol",
  "compiler": {
    "name": "solc",
    "version": "0.8.0+commit.c7dfd78e.Emscripten.clang"
  },
  "schemaVersion": "3.4.7",
  "updatedAt": "2022-07-20T15:33:16.397Z",
  "networkType": "ethereum",
  "devdoc": {
    "kind": "dev",
    "methods": {
      "getRoleAdmin(bytes32)": {
        "details": "Returns the admin role that controls `role`. See {grantRole} and {revokeRole}. To change a role's admin, use {_setRoleAdmin}."
      },
      "grantRole(bytes32,address)": {
        "details": "Grants `role` to `account`. If `account` had not been already granted `role`, emits a {RoleGranted} event. Requirements: - the caller must have ``role``'s admin role. May emit a {RoleGranted} event."
      },
      "hasRole(bytes32,address)": {
        "details": "Returns `true` if `account` has been granted `role`."
      },
      "renounceRole(bytes32,address)": {
        "details": "Revokes `role` from the calling account. Roles are often managed via {grantRole} and {revokeRole}: this function's purpose is to provide a mechanism for accounts to lose their privileges if they are compromised (such as when a trusted device is misplaced). If the calling account had been revoked `role`, emits a {RoleRevoked} event. Requirements: - the caller must be `account`. May emit a {RoleRevoked} event."
      },
      "revokeRole(bytes32,address)": {
        "details": "Revokes `role` from `account`. If `account` had been granted `role`, emits a {RoleRevoked} event. Requirements: - the caller must have ``role``'s admin role. May emit a {RoleRevoked} event."
      },
      "supportsInterface(bytes4)": {
        "details": "See {IERC165-supportsInterface}."
      }
    },
    "version": 1
  },
  "userdoc": {
    "kind": "user",
    "methods": {},
    "version": 1
  }
}