{
  "contractName": "Authentication",
  "abi": [
    {
      "inputs": [],
      "stateMutability": "nonpayable",
      "type": "constructor"
    },
    {
      "anonymous": false,
      "inputs": [
        {
          "indexed": true,
          "internalType": "bytes32",
          "name": "role",
          "type": "bytes32"
        },
        {
          "indexed": true,
          "internalType": "bytes32",
          "name": "previousAdminRole",
          "type": "bytes32"
        },
        {
          "indexed": true,
          "internalType": "bytes32",
          "name": "newAdminRole",
          "type": "bytes32"
        }
      ],
      "name": "RoleAdminChanged",
      "type": "event"
    },
    {
      "anonymous": false,
      "inputs": [
        {
          "indexed": true,
          "internalType": "bytes32",
          "name": "role",
          "type": "bytes32"
        },
        {
          "indexed": true,
          "internalType": "address",
          "name": "account",
          "type": "address"
        },
        {
          "indexed": true,
          "internalType": "address",
          "name": "sender",
          "type": "address"
        }
      ],
      "name": "RoleGranted",
      "type": "event"
    },
    {
      "anonymous": false,
      "inputs": [
        {
          "indexed": true,
          "internalType": "bytes32",
          "name": "role",
          "type": "bytes32"
        },
        {
          "indexed": true,
          "internalType": "address",
          "name": "account",
          "type": "address"
        },
        {
          "indexed": true,
          "internalType": "address",
          "name": "sender",
          "type": "address"
        }
      ],
      "name": "RoleRevoked",
      "type": "event"
    },
    {
      "inputs": [],
      "name": "DEFAULT_ADMIN_ROLE",
      "outputs": [
        {
          "internalType": "bytes32",
          "name": "",
          "type": "bytes32"
        }
      ],
      "stateMutability": "view",
      "type": "function"
    },
    {
      "inputs": [],
      "name": "USER_ROLE",
      "outputs": [
        {
          "internalType": "bytes32",
          "name": "",
          "type": "bytes32"
        }
      ],
      "stateMutability": "view",
      "type": "function"
    },
    {
      "inputs": [
        {
          "internalType": "bytes32",
          "name": "role",
          "type": "bytes32"
        }
      ],
      "name": "getRoleAdmin",
      "outputs": [
        {
          "internalType": "bytes32",
          "name": "",
          "type": "bytes32"
        }
      ],
      "stateMutability": "view",
      "type": "function"
    },
    {
      "inputs": [
        {
          "internalType": "bytes32",
          "name": "role",
          "type": "bytes32"
        },
        {
          "internalType": "address",
          "name": "account",
          "type": "address"
        }
      ],
      "name": "grantRole",
      "outputs": [],
      "stateMutability": "nonpayable",
      "type": "function"
    },
    {
      "inputs": [
        {
          "internalType": "bytes32",
          "name": "role",
          "type": "bytes32"
        },
        {
          "internalType": "address",
          "name": "account",
          "type": "address"
        }
      ],
      "name": "hasRole",
      "outputs": [
        {
          "internalType": "bool",
          "name": "",
          "type": "bool"
        }
      ],
      "stateMutability": "view",
      "type": "function"
    },
    {
      "inputs": [
        {
          "internalType": "bytes32",
          "name": "role",
          "type": "bytes32"
        },
        {
          "internalType": "address",
          "name": "account",
          "type": "address"
        }
      ],
      "name": "renounceRole",
      "outputs": [],
      "stateMutability": "nonpayable",
      "type": "function"
    },
    {
      "inputs": [
        {
          "internalType": "bytes32",
          "name": "role",
          "type": "bytes32"
        },
        {
          "internalType": "address",
          "name": "account",
          "type": "address"
        }
      ],
      "name": "revokeRole",
      "outputs": [],
      "stateMutability": "nonpayable",
      "type": "function"
    },
    {
      "inputs": [
        {
          "internalType": "bytes4",
          "name": "interfaceId",
          "type": "bytes4"
        }
      ],
      "name": "supportsInterface",
      "outputs": [
        {
          "internalType": "bool",
          "name": "",
          "type": "bool"
        }
      ],
      "stateMutability": "view",
      "type": "function"
    },
    {
      "inputs": [
        {
          "internalType": "address",
          "name": "account",
          "type": "address"
        }
      ],
      "name": "isAdmin",
      "outputs": [
        {
          "internalType": "bool",
          "name": "",
          "type": "bool"
        }
      ],
      "stateMutability": "view",
      "type": "function"
    },
    {
      "inputs": [
        {
          "internalType": "address",
          "name": "account",
          "type": "address"
        }
      ],
      "name": "isUser",
      "outputs": [
        {
          "internalType": "bool",
          "name": "",
          "type": "bool"
        }
      ],
      "stateMutability": "view",
      "type": "function"
    },
    {
      "inputs": [
        {
          "internalType": "address",
          "name": "account",
          "type": "address"
        }
      ],
      "name": "addUser",
      "outputs": [
        {
          "internalType": "bool",
          "name": "",
          "type": "bool"
        }
      ],
      "stateMutability": "nonpayable",
      "type": "function"
    },
    {
      "inputs": [
        {
          "internalType": "address",
          "name": "account",
          "type": "address"
        }
      ],
      "name": "addAdmin",
      "outputs": [
        {
          "internalType": "bool",
          "name": "",
          "type": "bool"
        }
      ],
      "stateMutability": "nonpayable",
      "type": "function"
    },
    {
      "inputs": [
        {
          "internalType": "address",
          "name": "account",
          "type": "address"
        }
      ],
      "name": "removeUser",
      "outputs": [
        {
          "internalType": "bool",
          "name": "",
          "type": "bool"
        }
      ],
      "stateMutability": "nonpayable",
      "type": "function"
    },
    {
      "inputs": [
        {
          "internalType": "address",
          "name": "account",
          "type": "address"
        }
      ],
      "name": "renounceAdmin",
      "outputs": [
        {
          "internalType": "bool",
          "name": "",
          "type": "bool"
        }
      ],
      "stateMutability": "nonpayable",
      "type": "function"
    },
    {
      "inputs": [],
      "name": "getAddress",
      "outputs": [
        {
          "internalType": "address",
          "name": "",
          "type": "address"
        }
      ],
      "stateMutability": "view",
      "type": "function"
    },
    {
      "inputs": [
        {
          "internalType": "address",
          "name": "_address",
          "type": "address"
        },
        {
          "internalType": "string",
          "name": "_name",
          "type": "string"
        },
        {
          "internalType": "string",
          "name": "_password",
          "type": "string"
        }
      ],
      "name": "registerUser",
      "outputs": [
        {
          "internalType": "bool",
          "name": "",
          "type": "bool"
        }
      ],
      "stateMutability": "nonpayable",
      "type": "function"
    },
    {
      "inputs": [
        {
          "internalType": "address",
          "name": "_address",
          "type": "address"
        },
        {
          "internalType": "string",
          "name": "_name",
          "type": "string"
        },
        {
          "internalType": "string",
          "name": "_password",
          "type": "string"
        }
      ],
      "name": "loginUser",
      "outputs": [
        {
          "internalType": "bool",
          "name": "",
          "type": "bool"
        }
      ],
      "stateMutability": "view",
      "type": "function"
    },
    {
      "inputs": [
        {
          "internalType": "address",
          "name": "_address",
          "type": "address"
        },
        {
          "internalType": "string",
          "name": "_name",
          "type": "string"
        },
        {
          "internalType": "string",
          "name": "_password",
          "type": "string"
        }
      ],
      "name": "loginAdmin",
      "outputs": [
        {
          "internalType": "bool",
          "name": "",
          "type": "bool"
        }
      ],
      "stateMutability": "view",
      "type": "function"
    }
  ],
  "bytecode": "0x60806040523480156200001157600080fd5b50620000276000801b336200006260201b60201c565b6200005c7f2db9fd3d099848027c2383d0a083396f6c41510d7acfd92adc99b6cffcf31e966000801b6200007860201b60201c565b6200025d565b620000748282620000db60201b60201c565b5050565b60006200008b83620001cc60201b60201c565b905081600080858152602001908152602001600020600101819055508181847fbd79b86ffe0ab8e8776151514217cd7cacd52c909f66475c3af44e129f0b00ff60405160405180910390a4505050565b620000ed8282620001eb60201b60201c565b620001c857600160008084815260200190815260200160002060000160008373ffffffffffffffffffffffffffffffffffffffff1673ffffffffffffffffffffffffffffffffffffffff16815260200190815260200160002060006101000a81548160ff0219169083151502179055506200016d6200025560201b60201c565b73ffffffffffffffffffffffffffffffffffffffff168173ffffffffffffffffffffffffffffffffffffffff16837f2f8788117e7eff1d82e926ec794901d17c78024a50270940304540a733656f0d60405160405180910390a45b5050565b6000806000838152602001908152602001600020600101549050919050565b600080600084815260200190815260200160002060000160008373ffffffffffffffffffffffffffffffffffffffff1673ffffffffffffffffffffffffffffffffffffffff16815260200190815260200160002060009054906101000a900460ff16905092915050565b600033905090565b611d48806200026d6000396000f3fe608060405234801561001057600080fd5b50600436106101165760003560e01c80634209fff1116100a257806391d148541161007157806391d148541461033f578063985751881461036f578063a217fddf1461039f578063d547741f146103bd578063db0c87c9146103d957610116565b80634209fff11461027f578063421b2d8b146102af5780635e1fab0f146102df578063704802751461030f57610116565b806324d7806c116100e957806324d7806c146101c95780632f2ff15d146101f957806336568abe1461021557806338cc48311461023157806340f1128b1461024f57610116565b806301ffc9a71461011b57806306f22b041461014b578063131191611461017b578063248a9ca314610199575b600080fd5b61013560048036038101906101309190611586565b610409565b60405161014291906118ee565b60405180910390f35b610165600480360381019061016091906114a2565b610483565b60405161017291906118ee565b60405180910390f35b6101836105b3565b6040516101909190611909565b60405180910390f35b6101b360048036038101906101ae9190611521565b6105d7565b6040516101c09190611909565b60405180910390f35b6101e360048036038101906101de9190611479565b6105f6565b6040516101f091906118ee565b60405180910390f35b610213600480360381019061020e919061154a565b61060c565b005b61022f600480360381019061022a919061154a565b61062d565b005b6102396106b0565b60405161024691906118d3565b60405180910390f35b610269600480360381019061026491906114a2565b6106b8565b60405161027691906118ee565b60405180910390f35b61029960048036038101906102949190611479565b6107e8565b6040516102a691906118ee565b60405180910390f35b6102c960048036038101906102c49190611479565b61081b565b6040516102d691906118ee565b60405180910390f35b6102f960048036038101906102f49190611479565b6108d0565b60405161030691906118ee565b60405180910390f35b61032960048036038101906103249190611479565b61094c565b60405161033691906118ee565b60405180910390f35b6103596004803603810190610354919061154a565b6109d1565b60405161036691906118ee565b60405180910390f35b61038960048036038101906103849190611479565b610a3b565b60405161039691906118ee565b60405180910390f35b6103a7610af1565b6040516103b49190611909565b60405180910390f35b6103d760048036038101906103d2919061154a565b610af8565b005b6103f360048036038101906103ee91906114a2565b610b19565b60405161040091906118ee565b60405180910390f35b60007f7965db0b000000000000000000000000000000000000000000000000000000007bffffffffffffffffffffffffffffffffffffffffffffffffffffffff1916827bffffffffffffffffffffffffffffffffffffffffffffffffffffffff1916148061047c575061047b82610d3c565b5b9050919050565b600061048e846107e8565b80156105015750816040516020016104a6919061186b565b60405160208183030381529060405280519060200120600160008673ffffffffffffffffffffffffffffffffffffffff1673ffffffffffffffffffffffffffffffffffffffff16815260200190815260200160002060020154145b8015610599575082604051602001610519919061186b565b60405160208183030381529060405280519060200120600160008673ffffffffffffffffffffffffffffffffffffffff1673ffffffffffffffffffffffffffffffffffffffff1681526020019081526020016000206001016040516020016105819190611882565b60405160208183030381529060405280519060200120145b156105a757600190506105ac565b600090505b9392505050565b7f2db9fd3d099848027c2383d0a083396f6c41510d7acfd92adc99b6cffcf31e9681565b6000806000838152602001908152602001600020600101549050919050565b60006106056000801b836109d1565b9050919050565b610615826105d7565b61061e81610da6565b6106288383610dba565b505050565b610635610e9a565b73ffffffffffffffffffffffffffffffffffffffff168173ffffffffffffffffffffffffffffffffffffffff16146106a2576040517f08c379a0000000000000000000000000000000000000000000000000000000008152600401610699906119a6565b60405180910390fd5b6106ac8282610ea2565b5050565b600033905090565b60006106c3846105f6565b80156107365750816040516020016106db919061186b565b60405160208183030381529060405280519060200120600160008673ffffffffffffffffffffffffffffffffffffffff1673ffffffffffffffffffffffffffffffffffffffff16815260200190815260200160002060020154145b80156107ce57508260405160200161074e919061186b565b60405160208183030381529060405280519060200120600160008673ffffffffffffffffffffffffffffffffffffffff1673ffffffffffffffffffffffffffffffffffffffff1681526020019081526020016000206001016040516020016107b69190611882565b60405160208183030381529060405280519060200120145b156107dc57600190506107e1565b600090505b9392505050565b60006108147f2db9fd3d099848027c2383d0a083396f6c41510d7acfd92adc99b6cffcf31e96836109d1565b9050919050565b6000610826336105f6565b610865576040517f08c379a000000000000000000000000000000000000000000000000000000000815260040161085c90611986565b60405180910390fd5b61088f7f2db9fd3d099848027c2383d0a083396f6c41510d7acfd92adc99b6cffcf31e96836109d1565b6108c6576108bd7f2db9fd3d099848027c2383d0a083396f6c41510d7acfd92adc99b6cffcf31e968361060c565b600190506108cb565b600090505b919050565b60006108db336105f6565b61091a576040517f08c379a000000000000000000000000000000000000000000000000000000000815260040161091190611986565b60405180910390fd5b6109276000801b836109d1565b15610942576109396000801b8361062d565b60019050610947565b600090505b919050565b6000610957336105f6565b610996576040517f08c379a000000000000000000000000000000000000000000000000000000000815260040161098d90611986565b60405180910390fd5b6109a36000801b836109d1565b6109c7576109b082610a3b565b506109be6000801b8361060c565b600190506109cc565b600090505b919050565b600080600084815260200190815260200160002060000160008373ffffffffffffffffffffffffffffffffffffffff1673ffffffffffffffffffffffffffffffffffffffff16815260200190815260200160002060009054906101000a900460ff16905092915050565b6000610a46336105f6565b610a85576040517f08c379a0000000000000000000000000000000000000000000000000000000008152600401610a7c90611986565b60405180910390fd5b610aaf7f2db9fd3d099848027c2383d0a083396f6c41510d7acfd92adc99b6cffcf31e96836109d1565b15610ae757610ade7f2db9fd3d099848027c2383d0a083396f6c41510d7acfd92adc99b6cffcf31e9683610af8565b60019050610aec565b600090505b919050565b6000801b81565b610b01826105d7565b610b0a81610da6565b610b148383610ea2565b505050565b60008373ffffffffffffffffffffffffffffffffffffffff16600160008673ffffffffffffffffffffffffffffffffffffffff1673ffffffffffffffffffffffffffffffffffffffff16815260200190815260200160002060000160009054906101000a900473ffffffffffffffffffffffffffffffffffffffff1673ffffffffffffffffffffffffffffffffffffffff161415610bec576040517f08c379a0000000000000000000000000000000000000000000000000000000008152600401610be390611966565b60405180910390fd5b83600160008673ffffffffffffffffffffffffffffffffffffffff1673ffffffffffffffffffffffffffffffffffffffff16815260200190815260200160002060000160006101000a81548173ffffffffffffffffffffffffffffffffffffffff021916908373ffffffffffffffffffffffffffffffffffffffff16021790555082600160008673ffffffffffffffffffffffffffffffffffffffff1673ffffffffffffffffffffffffffffffffffffffff1681526020019081526020016000206001019080519060200190610cc392919061132f565b5081604051602001610cd5919061186b565b60405160208183030381529060405280519060200120600160008673ffffffffffffffffffffffffffffffffffffffff1673ffffffffffffffffffffffffffffffffffffffff16815260200190815260200160002060020181905550600190509392505050565b60007f01ffc9a7000000000000000000000000000000000000000000000000000000007bffffffffffffffffffffffffffffffffffffffffffffffffffffffff1916827bffffffffffffffffffffffffffffffffffffffffffffffffffffffff1916149050919050565b610db781610db2610e9a565b610f83565b50565b610dc482826109d1565b610e9657600160008084815260200190815260200160002060000160008373ffffffffffffffffffffffffffffffffffffffff1673ffffffffffffffffffffffffffffffffffffffff16815260200190815260200160002060006101000a81548160ff021916908315150217905550610e3b610e9a565b73ffffffffffffffffffffffffffffffffffffffff168173ffffffffffffffffffffffffffffffffffffffff16837f2f8788117e7eff1d82e926ec794901d17c78024a50270940304540a733656f0d60405160405180910390a45b5050565b600033905090565b610eac82826109d1565b15610f7f57600080600084815260200190815260200160002060000160008373ffffffffffffffffffffffffffffffffffffffff1673ffffffffffffffffffffffffffffffffffffffff16815260200190815260200160002060006101000a81548160ff021916908315150217905550610f24610e9a565b73ffffffffffffffffffffffffffffffffffffffff168173ffffffffffffffffffffffffffffffffffffffff16837ff6391f5c32d9c69d2a47ea670b442974b53935d1edc7fd64eb21e047a839171b60405160405180910390a45b5050565b610f8d82826109d1565b61100457610f9a81611008565b610fa88360001c6020611035565b604051602001610fb9929190611899565b6040516020818303038152906040526040517f08c379a0000000000000000000000000000000000000000000000000000000008152600401610ffb9190611924565b60405180910390fd5b5050565b606061102e8273ffffffffffffffffffffffffffffffffffffffff16601460ff16611035565b9050919050565b6060600060028360026110489190611ab9565b6110529190611a63565b67ffffffffffffffff811115611091577f4e487b7100000000000000000000000000000000000000000000000000000000600052604160045260246000fd5b6040519080825280601f01601f1916602001820160405280156110c35781602001600182028036833780820191505090505b5090507f300000000000000000000000000000000000000000000000000000000000000081600081518110611121577f4e487b7100000000000000000000000000000000000000000000000000000000600052603260045260246000fd5b60200101907effffffffffffffffffffffffffffffffffffffffffffffffffffffffffffff1916908160001a9053507f7800000000000000000000000000000000000000000000000000000000000000816001815181106111ab577f4e487b7100000000000000000000000000000000000000000000000000000000600052603260045260246000fd5b60200101907effffffffffffffffffffffffffffffffffffffffffffffffffffffffffffff1916908160001a905350600060018460026111eb9190611ab9565b6111f59190611a63565b90505b60018111156112e1577f3031323334353637383961626364656600000000000000000000000000000000600f86166010811061125d577f4e487b7100000000000000000000000000000000000000000000000000000000600052603260045260246000fd5b1a60f81b82828151811061129a577f4e487b7100000000000000000000000000000000000000000000000000000000600052603260045260246000fd5b60200101907effffffffffffffffffffffffffffffffffffffffffffffffffffffffffffff1916908160001a905350600485901c9450806112da90611bd3565b90506111f8565b5060008414611325576040517f08c379a000000000000000000000000000000000000000000000000000000000815260040161131c90611946565b60405180910390fd5b8091505092915050565b82805461133b90611bfd565b90600052602060002090601f01602090048101928261135d57600085556113a4565b82601f1061137657805160ff19168380011785556113a4565b828001600101855582156113a4579182015b828111156113a3578251825591602001919060010190611388565b5b5090506113b191906113b5565b5090565b5b808211156113ce5760008160009055506001016113b6565b5090565b60006113e56113e0846119f7565b6119c6565b9050828152602081018484840111156113fd57600080fd5b611408848285611b91565b509392505050565b60008135905061141f81611ccd565b92915050565b60008135905061143481611ce4565b92915050565b60008135905061144981611cfb565b92915050565b600082601f83011261146057600080fd5b81356114708482602086016113d2565b91505092915050565b60006020828403121561148b57600080fd5b600061149984828501611410565b91505092915050565b6000806000606084860312156114b757600080fd5b60006114c586828701611410565b935050602084013567ffffffffffffffff8111156114e257600080fd5b6114ee8682870161144f565b925050604084013567ffffffffffffffff81111561150b57600080fd5b6115178682870161144f565b9150509250925092565b60006020828403121561153357600080fd5b600061154184828501611425565b91505092915050565b6000806040838503121561155d57600080fd5b600061156b85828601611425565b925050602061157c85828601611410565b9150509250929050565b60006020828403121561159857600080fd5b60006115a68482850161143a565b91505092915050565b6115b881611b13565b82525050565b6115c781611b25565b82525050565b6115d681611b31565b82525050565b60006115e782611a3c565b6115f18185611a47565b9350611601818560208601611ba0565b61160a81611cbc565b840191505092915050565b600061162082611a3c565b61162a8185611a58565b935061163a818560208601611ba0565b80840191505092915050565b6000815461165381611bfd565b61165d8186611a58565b945060018216600081146116785760018114611689576116bc565b60ff198316865281860193506116bc565b61169285611a27565b60005b838110156116b457815481890152600182019150602081019050611695565b838801955050505b50505092915050565b60006116d2602083611a47565b91507f537472696e67733a20686578206c656e67746820696e73756666696369656e746000830152602082019050919050565b6000611712601283611a47565b91507f616c7265616479207265676973746572656400000000000000000000000000006000830152602082019050919050565b6000611752601583611a47565b91507f5265737472696374656420746f2061646d696e732e00000000000000000000006000830152602082019050919050565b6000611792601783611a58565b91507f416363657373436f6e74726f6c3a206163636f756e74200000000000000000006000830152601782019050919050565b60006117d2601183611a58565b91507f206973206d697373696e6720726f6c65200000000000000000000000000000006000830152601182019050919050565b6000611812602f83611a47565b91507f416363657373436f6e74726f6c3a2063616e206f6e6c792072656e6f756e636560008301527f20726f6c657320666f722073656c6600000000000000000000000000000000006020830152604082019050919050565b60006118778284611615565b915081905092915050565b600061188e8284611646565b915081905092915050565b60006118a482611785565b91506118b08285611615565b91506118bb826117c5565b91506118c78284611615565b91508190509392505050565b60006020820190506118e860008301846115af565b92915050565b600060208201905061190360008301846115be565b92915050565b600060208201905061191e60008301846115cd565b92915050565b6000602082019050818103600083015261193e81846115dc565b905092915050565b6000602082019050818103600083015261195f816116c5565b9050919050565b6000602082019050818103600083015261197f81611705565b9050919050565b6000602082019050818103600083015261199f81611745565b9050919050565b600060208201905081810360008301526119bf81611805565b9050919050565b6000604051905081810181811067ffffffffffffffff821117156119ed576119ec611c8d565b5b8060405250919050565b600067ffffffffffffffff821115611a1257611a11611c8d565b5b601f19601f8301169050602081019050919050565b60008190508160005260206000209050919050565b600081519050919050565b600082825260208201905092915050565b600081905092915050565b6000611a6e82611b87565b9150611a7983611b87565b9250827fffffffffffffffffffffffffffffffffffffffffffffffffffffffffffffffff03821115611aae57611aad611c2f565b5b828201905092915050565b6000611ac482611b87565b9150611acf83611b87565b9250817fffffffffffffffffffffffffffffffffffffffffffffffffffffffffffffffff0483118215151615611b0857611b07611c2f565b5b828202905092915050565b6000611b1e82611b67565b9050919050565b60008115159050919050565b6000819050919050565b60007fffffffff0000000000000000000000000000000000000000000000000000000082169050919050565b600073ffffffffffffffffffffffffffffffffffffffff82169050919050565b6000819050919050565b82818337600083830152505050565b60005b83811015611bbe578082015181840152602081019050611ba3565b83811115611bcd576000848401525b50505050565b6000611bde82611b87565b91506000821415611bf257611bf1611c2f565b5b600182039050919050565b60006002820490506001821680611c1557607f821691505b60208210811415611c2957611c28611c5e565b5b50919050565b7f4e487b7100000000000000000000000000000000000000000000000000000000600052601160045260246000fd5b7f4e487b7100000000000000000000000000000000000000000000000000000000600052602260045260246000fd5b7f4e487b7100000000000000000000000000000000000000000000000000000000600052604160045260246000fd5b6000601f19601f8301169050919050565b611cd681611b13565b8114611ce157600080fd5b50565b611ced81611b31565b8114611cf857600080fd5b50565b611d0481611b3b565b8114611d0f57600080fd5b5056fea2646970667358221220fbf924c0cab9a025e54f5b7983b61edd1295375e501da3cc524aea34b7ac4c4564736f6c63430008000033",
  "immutableReferences": {},
  "source": "// SPDX-License-Identifier: MIT\n\n/********************************************************************************************** \n* Il seguente Smart Contract fornisce il servizio di autenticazione assicurando la sicurezza  *\n* mediante la definizione di ruoli specifici tra il semplice utente e l'amministratore;       *\n* il tutto  permesso grazie all'utilizzo di OpenZeppelin:                                    *\n*                                                                                             *\n* -  DEFAULT_ADMIN_ROLE  il ruolo di admin;                                                  *\n* -  USER_ROLE  il ruolo di utente;                                                          *\n* -  gli admin possono aggiungere altri amministratori;                                       *\n* -  gli admin possono concedere e revocare le autorizzazioni utente a qualsiasi account;     *\n* -  l'unico modo per un admin di perdere il proprio ruolo di admin  di rinunciarvi.         *\n*                                                                                             *\n* Quando un utente o un admin si registrano entrambi non hanno un ruolo che verr asseggnato  *\n* in seguito dall'admin con \"addUser\" o \"addAdmin\".                                           *\n*                                                                                             *\n***********************************************************************************************/\n\npragma solidity ^0.8.0;\n\nimport \"@openzeppelin/contracts/access/AccessControl.sol\";\n\ncontract Authentication is AccessControl {\n    bytes32 public constant USER_ROLE = keccak256(\"USER\");\n    \n    struct User {\n        address addr;\n        string name;\n        bytes32 password;\n    }\n\n    mapping(address => User) user;\n\n    constructor() {\n        _setupRole(DEFAULT_ADMIN_ROLE, msg.sender);\n        _setRoleAdmin(USER_ROLE, DEFAULT_ADMIN_ROLE);\n    }\n\n    /* Ristretto ai membri che hanno l'admin role. */\n    modifier onlyAdmin(){\n        require(isAdmin(msg.sender), \"Restricted to admins.\");\n        _;\n    }\n\n    /* Ristretto ai membri che hanno l'user role. */\n    modifier onlyUser(){\n        require(isUser(msg.sender), \"Restricted to users.\");\n        _;\n    }\n\n    /* Ritorna 'true' se l'account ha il ruolo di admin. */\n    function isAdmin(address account) public virtual view returns (bool) {\n        return hasRole(DEFAULT_ADMIN_ROLE, account);\n    }\n    \n    /* Ritorna 'true' se l'account ha il ruolo di user. */\n    function isUser(address account) public virtual view returns (bool) {\n        return hasRole(USER_ROLE, account);\n    }\n\n    /* Aggiunge un account con il ruolo di user (lo possono fare solo gli admin). */\n    function addUser(address account) public virtual onlyAdmin returns (bool){\n        if(!hasRole(USER_ROLE, account)){\n            grantRole(USER_ROLE, account);\n            return true;\n        } return false;\n    }\n\n    /* Aumenta i privilegi ad un account assegnandogli il ruolo di admin e revocando\n     * quello di user (lo possono fare solo gli admin). */\n    function addAdmin(address account) public virtual onlyAdmin returns (bool){\n        if(!hasRole(DEFAULT_ADMIN_ROLE, account)){\n            removeUser(account);\n            grantRole(DEFAULT_ADMIN_ROLE, account);\n            return true;\n        } return false;\n    }\n\n    /* Rimuove un account dal ruolo di user (lo possono fare solo gli admin). */\n    function removeUser(address account) public virtual onlyAdmin returns (bool){\n        if(hasRole(USER_ROLE, account)){\n            revokeRole(USER_ROLE, account);\n            return true;\n        } return false;\n    }\n\n    /* Un admin rinucia ad esserlo. */\n    function renounceAdmin(address account) public virtual onlyAdmin returns (bool){\n        if(hasRole(DEFAULT_ADMIN_ROLE, account)){\n            renounceRole(DEFAULT_ADMIN_ROLE, account);\n            return true;\n        } return false;\n    }\n\n    function getAddress() public view returns (address) {\n        return msg.sender;\n    }\n\n    /************************************************************************\n    * Nella funzione di registrazione dell'utente, se l'utente non si  gi  \n    * registrato i suoi dati vengono registrati sulla blockchain.\n    **************************************************************************/\n    function registerUser(\n        address _address,\n        string memory _name,\n        string memory _password\n    ) public returns (bool) {\n        require(user[_address].addr != _address, \"already registered\");\n\n        user[_address].addr = _address;\n        user[_address].name = _name;\n        user[_address].password = keccak256(abi.encodePacked(_password));\n        return true;\n    }\n\n    /***********************************************************************\n    * La funzione di login fornisce la possibilit di accedere alla pagina *\n    * personale dell'admin                                                 *\n    ************************************************************************/\n    function loginUser(address _address, string memory _name, string memory _password) public view returns (bool) {\n        //keccak256(abi.encodePacked(...))  usato per comparare le stringhe e richiede meno gas\n        if (isUser(_address) && user[_address].password == keccak256(abi.encodePacked(_password)) &&\n            keccak256(abi.encodePacked(user[_address].name)) == keccak256(abi.encodePacked(_name))) {\n            return true;\n        }\n        return false;\n    }\n\n    /***********************************************************************\n    * La funzione di login fornisce la possibilit di accedere alla pagina *\n    * personale dell'user                                                  *\n    ************************************************************************/\n    function loginAdmin(address _address, string memory _name, string memory _password) public view returns (bool) {\n        if (isAdmin(_address) && user[_address].password == keccak256(abi.encodePacked(_password)) &&\n            keccak256(abi.encodePacked(user[_address].name)) == keccak256(abi.encodePacked(_name))) {\n            return true;\n        }\n        return false;\n    }\n}",
  "sourcePath": "/home/alberto/Documents/GitHub/Blockchain-Authentication/KryptoAuth/src/main/smart contract/contracts/Authentication.sol",
  "compiler": {
    "name": "solc",
    "version": "0.8.0+commit.c7dfd78e.Emscripten.clang"
  },
  "schemaVersion": "3.4.11",
  "updatedAt": "2022-12-22T10:27:40.571Z",
  "devdoc": {
    "kind": "dev",
    "methods": {
      "getRoleAdmin(bytes32)": {
        "details": "Returns the admin role that controls `role`. See {grantRole} and {revokeRole}. To change a role's admin, use {_setRoleAdmin}."
      },
      "grantRole(bytes32,address)": {
        "details": "Grants `role` to `account`. If `account` had not been already granted `role`, emits a {RoleGranted} event. Requirements: - the caller must have ``role``'s admin role. May emit a {RoleGranted} event."
      },
      "hasRole(bytes32,address)": {
        "details": "Returns `true` if `account` has been granted `role`."
      },
      "renounceRole(bytes32,address)": {
        "details": "Revokes `role` from the calling account. Roles are often managed via {grantRole} and {revokeRole}: this function's purpose is to provide a mechanism for accounts to lose their privileges if they are compromised (such as when a trusted device is misplaced). If the calling account had been revoked `role`, emits a {RoleRevoked} event. Requirements: - the caller must be `account`. May emit a {RoleRevoked} event."
      },
      "revokeRole(bytes32,address)": {
        "details": "Revokes `role` from `account`. If `account` had been granted `role`, emits a {RoleRevoked} event. Requirements: - the caller must have ``role``'s admin role. May emit a {RoleRevoked} event."
      },
      "supportsInterface(bytes4)": {
        "details": "See {IERC165-supportsInterface}."
      }
    },
    "version": 1
  },
  "userdoc": {
    "kind": "user",
    "methods": {},
    "version": 1
  }
}