{
  "contractName": "Authentication",
  "abi": [
    {
      "inputs": [],
      "stateMutability": "nonpayable",
      "type": "constructor"
    },
    {
      "anonymous": false,
      "inputs": [
        {
          "indexed": true,
          "internalType": "bytes32",
          "name": "role",
          "type": "bytes32"
        },
        {
          "indexed": true,
          "internalType": "bytes32",
          "name": "previousAdminRole",
          "type": "bytes32"
        },
        {
          "indexed": true,
          "internalType": "bytes32",
          "name": "newAdminRole",
          "type": "bytes32"
        }
      ],
      "name": "RoleAdminChanged",
      "type": "event"
    },
    {
      "anonymous": false,
      "inputs": [
        {
          "indexed": true,
          "internalType": "bytes32",
          "name": "role",
          "type": "bytes32"
        },
        {
          "indexed": true,
          "internalType": "address",
          "name": "account",
          "type": "address"
        },
        {
          "indexed": true,
          "internalType": "address",
          "name": "sender",
          "type": "address"
        }
      ],
      "name": "RoleGranted",
      "type": "event"
    },
    {
      "anonymous": false,
      "inputs": [
        {
          "indexed": true,
          "internalType": "bytes32",
          "name": "role",
          "type": "bytes32"
        },
        {
          "indexed": true,
          "internalType": "address",
          "name": "account",
          "type": "address"
        },
        {
          "indexed": true,
          "internalType": "address",
          "name": "sender",
          "type": "address"
        }
      ],
      "name": "RoleRevoked",
      "type": "event"
    },
    {
      "inputs": [],
      "name": "DEFAULT_ADMIN_ROLE",
      "outputs": [
        {
          "internalType": "bytes32",
          "name": "",
          "type": "bytes32"
        }
      ],
      "stateMutability": "view",
      "type": "function",
      "constant": true
    },
    {
      "inputs": [],
      "name": "USER_ROLE",
      "outputs": [
        {
          "internalType": "bytes32",
          "name": "",
          "type": "bytes32"
        }
      ],
      "stateMutability": "view",
      "type": "function",
      "constant": true
    },
    {
      "inputs": [
        {
          "internalType": "bytes32",
          "name": "role",
          "type": "bytes32"
        }
      ],
      "name": "getRoleAdmin",
      "outputs": [
        {
          "internalType": "bytes32",
          "name": "",
          "type": "bytes32"
        }
      ],
      "stateMutability": "view",
      "type": "function",
      "constant": true
    },
    {
      "inputs": [
        {
          "internalType": "bytes32",
          "name": "role",
          "type": "bytes32"
        },
        {
          "internalType": "address",
          "name": "account",
          "type": "address"
        }
      ],
      "name": "grantRole",
      "outputs": [],
      "stateMutability": "nonpayable",
      "type": "function"
    },
    {
      "inputs": [
        {
          "internalType": "bytes32",
          "name": "role",
          "type": "bytes32"
        },
        {
          "internalType": "address",
          "name": "account",
          "type": "address"
        }
      ],
      "name": "hasRole",
      "outputs": [
        {
          "internalType": "bool",
          "name": "",
          "type": "bool"
        }
      ],
      "stateMutability": "view",
      "type": "function",
      "constant": true
    },
    {
      "inputs": [
        {
          "internalType": "bytes32",
          "name": "role",
          "type": "bytes32"
        },
        {
          "internalType": "address",
          "name": "account",
          "type": "address"
        }
      ],
      "name": "renounceRole",
      "outputs": [],
      "stateMutability": "nonpayable",
      "type": "function"
    },
    {
      "inputs": [
        {
          "internalType": "bytes32",
          "name": "role",
          "type": "bytes32"
        },
        {
          "internalType": "address",
          "name": "account",
          "type": "address"
        }
      ],
      "name": "revokeRole",
      "outputs": [],
      "stateMutability": "nonpayable",
      "type": "function"
    },
    {
      "inputs": [
        {
          "internalType": "bytes4",
          "name": "interfaceId",
          "type": "bytes4"
        }
      ],
      "name": "supportsInterface",
      "outputs": [
        {
          "internalType": "bool",
          "name": "",
          "type": "bool"
        }
      ],
      "stateMutability": "view",
      "type": "function",
      "constant": true
    },
    {
      "inputs": [
        {
          "internalType": "address",
          "name": "account",
          "type": "address"
        }
      ],
      "name": "isAdmin",
      "outputs": [
        {
          "internalType": "bool",
          "name": "",
          "type": "bool"
        }
      ],
      "stateMutability": "view",
      "type": "function",
      "constant": true
    },
    {
      "inputs": [
        {
          "internalType": "address",
          "name": "account",
          "type": "address"
        }
      ],
      "name": "isUser",
      "outputs": [
        {
          "internalType": "bool",
          "name": "",
          "type": "bool"
        }
      ],
      "stateMutability": "view",
      "type": "function",
      "constant": true
    },
    {
      "inputs": [
        {
          "internalType": "address",
          "name": "account",
          "type": "address"
        }
      ],
      "name": "addUser",
      "outputs": [],
      "stateMutability": "nonpayable",
      "type": "function"
    },
    {
      "inputs": [
        {
          "internalType": "address",
          "name": "account",
          "type": "address"
        }
      ],
      "name": "addAdmin",
      "outputs": [],
      "stateMutability": "nonpayable",
      "type": "function"
    },
    {
      "inputs": [
        {
          "internalType": "address",
          "name": "account",
          "type": "address"
        }
      ],
      "name": "removeUser",
      "outputs": [],
      "stateMutability": "nonpayable",
      "type": "function"
    },
    {
      "inputs": [],
      "name": "renounceAdmin",
      "outputs": [],
      "stateMutability": "nonpayable",
      "type": "function"
    },
    {
      "inputs": [],
      "name": "getAddress",
      "outputs": [
        {
          "internalType": "address",
          "name": "",
          "type": "address"
        }
      ],
      "stateMutability": "view",
      "type": "function",
      "constant": true
    },
    {
      "inputs": [
        {
          "internalType": "address",
          "name": "_address",
          "type": "address"
        },
        {
          "internalType": "string",
          "name": "_name",
          "type": "string"
        },
        {
          "internalType": "string",
          "name": "_password",
          "type": "string"
        }
      ],
      "name": "registerUser",
      "outputs": [
        {
          "internalType": "bool",
          "name": "",
          "type": "bool"
        }
      ],
      "stateMutability": "nonpayable",
      "type": "function"
    },
    {
      "inputs": [
        {
          "internalType": "address",
          "name": "_address",
          "type": "address"
        },
        {
          "internalType": "string",
          "name": "_name",
          "type": "string"
        },
        {
          "internalType": "string",
          "name": "_password",
          "type": "string"
        }
      ],
      "name": "loginUser",
      "outputs": [
        {
          "internalType": "bool",
          "name": "",
          "type": "bool"
        }
      ],
      "stateMutability": "nonpayable",
      "type": "function"
    },
    {
      "inputs": [
        {
          "internalType": "address",
          "name": "_address",
          "type": "address"
        }
      ],
      "name": "checkIsUserLogged",
      "outputs": [
        {
          "internalType": "bool",
          "name": "",
          "type": "bool"
        }
      ],
      "stateMutability": "view",
      "type": "function",
      "constant": true
    },
    {
      "inputs": [
        {
          "internalType": "address",
          "name": "_address",
          "type": "address"
        }
      ],
      "name": "logoutUser",
      "outputs": [],
      "stateMutability": "nonpayable",
      "type": "function"
    },
    {
      "inputs": [
        {
          "internalType": "address",
          "name": "_address",
          "type": "address"
        },
        {
          "internalType": "string",
          "name": "_name",
          "type": "string"
        },
        {
          "internalType": "string",
          "name": "_password",
          "type": "string"
        }
      ],
      "name": "registerAdmin",
      "outputs": [
        {
          "internalType": "bool",
          "name": "",
          "type": "bool"
        }
      ],
      "stateMutability": "nonpayable",
      "type": "function"
    },
    {
      "inputs": [
        {
          "internalType": "address",
          "name": "_address",
          "type": "address"
        },
        {
          "internalType": "string",
          "name": "_name",
          "type": "string"
        },
        {
          "internalType": "string",
          "name": "_password",
          "type": "string"
        }
      ],
      "name": "loginAdmin",
      "outputs": [
        {
          "internalType": "bool",
          "name": "",
          "type": "bool"
        }
      ],
      "stateMutability": "nonpayable",
      "type": "function"
    },
    {
      "inputs": [
        {
          "internalType": "address",
          "name": "_address",
          "type": "address"
        }
      ],
      "name": "checkIsAdminLogged",
      "outputs": [
        {
          "internalType": "bool",
          "name": "",
          "type": "bool"
        }
      ],
      "stateMutability": "view",
      "type": "function",
      "constant": true
    },
    {
      "inputs": [
        {
          "internalType": "address",
          "name": "_address",
          "type": "address"
        }
      ],
      "name": "logoutAdmin",
      "outputs": [],
      "stateMutability": "nonpayable",
      "type": "function"
    }
  ],
  "bytecode": "0x60806040523480156200001157600080fd5b50620000276000801b336200006260201b60201c565b6200005c7f2db9fd3d099848027c2383d0a083396f6c41510d7acfd92adc99b6cffcf31e966000801b6200007860201b60201c565b6200025d565b620000748282620000db60201b60201c565b5050565b60006200008b83620001cc60201b60201c565b905081600080858152602001908152602001600020600101819055508181847fbd79b86ffe0ab8e8776151514217cd7cacd52c909f66475c3af44e129f0b00ff60405160405180910390a4505050565b620000ed8282620001eb60201b60201c565b620001c857600160008084815260200190815260200160002060000160008373ffffffffffffffffffffffffffffffffffffffff1673ffffffffffffffffffffffffffffffffffffffff16815260200190815260200160002060006101000a81548160ff0219169083151502179055506200016d6200025560201b60201c565b73ffffffffffffffffffffffffffffffffffffffff168173ffffffffffffffffffffffffffffffffffffffff16837f2f8788117e7eff1d82e926ec794901d17c78024a50270940304540a733656f0d60405160405180910390a45b5050565b6000806000838152602001908152602001600020600101549050919050565b600080600084815260200190815260200160002060000160008373ffffffffffffffffffffffffffffffffffffffff1673ffffffffffffffffffffffffffffffffffffffff16815260200190815260200160002060009054906101000a900460ff16905092915050565b600033905090565b612269806200026d6000396000f3fe608060405234801561001057600080fd5b506004361061014d5760003560e01c80634209fff1116100c357806391d148541161007c57806391d14854146103c057806398575188146103f057806398711c171461040c578063a217fddf1461043c578063d547741f1461045a578063db0c87c9146104765761014d565b80634209fff114610302578063421b2d8b146103325780634ad407a31461034e578063645cf80f1461037e578063704802751461039a5780638bad0c0a146103b65761014d565b806324d7806c1161011557806324d7806c1461021c578063297f7b391461024c5780632f2ff15d1461027c57806336568abe1461029857806338cc4831146102b457806340f1128b146102d25761014d565b806301ffc9a71461015257806306f22b041461018257806309df5060146101b257806313119161146101ce578063248a9ca3146101ec575b600080fd5b61016c60048036038101906101679190611aa7565b6104a6565b6040516101799190611e0f565b60405180910390f35b61019c600480360381019061019791906119c3565b610520565b6040516101a99190611e0f565b60405180910390f35b6101cc60048036038101906101c7919061199a565b6106e7565b005b6101d6610745565b6040516101e39190611e2a565b60405180910390f35b61020660048036038101906102019190611a42565b610769565b6040516102139190611e2a565b60405180910390f35b6102366004803603810190610231919061199a565b610788565b6040516102439190611e0f565b60405180910390f35b6102666004803603810190610261919061199a565b61079e565b6040516102739190611e0f565b60405180910390f35b61029660048036038101906102919190611a6b565b6107f7565b005b6102b260048036038101906102ad9190611a6b565b610818565b005b6102bc61089b565b6040516102c99190611df4565b60405180910390f35b6102ec60048036038101906102e791906119c3565b6108a3565b6040516102f99190611e0f565b60405180910390f35b61031c6004803603810190610317919061199a565b610a6b565b6040516103299190611e0f565b60405180910390f35b61034c6004803603810190610347919061199a565b610a9e565b005b610368600480360381019061036391906119c3565b610b42565b6040516103759190611e0f565b60405180910390f35b6103986004803603810190610393919061199a565b610dbf565b005b6103b460048036038101906103af919061199a565b610e1d565b005b6103be610e87565b005b6103da60048036038101906103d59190611a6b565b610e96565b6040516103e79190611e0f565b60405180910390f35b61040a6004803603810190610405919061199a565b610f00565b005b6104266004803603810190610421919061199a565b610f75565b6040516104339190611e0f565b60405180910390f35b610444610fce565b6040516104519190611e2a565b60405180910390f35b610474600480360381019061046f9190611a6b565b610fd5565b005b610490600480360381019061048b91906119c3565b610ff6565b60405161049d9190611e0f565b60405180910390f35b60007f7965db0b000000000000000000000000000000000000000000000000000000007bffffffffffffffffffffffffffffffffffffffffffffffffffffffff1916827bffffffffffffffffffffffffffffffffffffffffffffffffffffffff19161480610519575061051882611272565b5b9050919050565b6000816040516020016105339190611d8c565b60405160208183030381529060405280519060200120600160008673ffffffffffffffffffffffffffffffffffffffff1673ffffffffffffffffffffffffffffffffffffffff168152602001908152602001600020600201541480156106255750826040516020016105a59190611d8c565b60405160208183030381529060405280519060200120600160008673ffffffffffffffffffffffffffffffffffffffff1673ffffffffffffffffffffffffffffffffffffffff16815260200190815260200160002060010160405160200161060d9190611da3565b60405160208183030381529060405280519060200120145b156106db5760018060008673ffffffffffffffffffffffffffffffffffffffff1673ffffffffffffffffffffffffffffffffffffffff16815260200190815260200160002060030160006101000a81548160ff021916908315150217905550600160008573ffffffffffffffffffffffffffffffffffffffff1673ffffffffffffffffffffffffffffffffffffffff16815260200190815260200160002060030160009054906101000a900460ff1690506106e0565b600090505b9392505050565b6000600160008373ffffffffffffffffffffffffffffffffffffffff1673ffffffffffffffffffffffffffffffffffffffff16815260200190815260200160002060030160006101000a81548160ff02191690831515021790555050565b7f2db9fd3d099848027c2383d0a083396f6c41510d7acfd92adc99b6cffcf31e9681565b6000806000838152602001908152602001600020600101549050919050565b60006107976000801b83610e96565b9050919050565b6000600160008373ffffffffffffffffffffffffffffffffffffffff1673ffffffffffffffffffffffffffffffffffffffff16815260200190815260200160002060030160009054906101000a900460ff169050919050565b61080082610769565b610809816112dc565b61081383836112f0565b505050565b6108206113d0565b73ffffffffffffffffffffffffffffffffffffffff168173ffffffffffffffffffffffffffffffffffffffff161461088d576040517f08c379a000000000000000000000000000000000000000000000000000000000815260040161088490611ec7565b60405180910390fd5b61089782826113d8565b5050565b600033905090565b6000816040516020016108b69190611d8c565b60405160208183030381529060405280519060200120600260008673ffffffffffffffffffffffffffffffffffffffff1673ffffffffffffffffffffffffffffffffffffffff168152602001908152602001600020600201541480156109a85750826040516020016109289190611d8c565b60405160208183030381529060405280519060200120600260008673ffffffffffffffffffffffffffffffffffffffff1673ffffffffffffffffffffffffffffffffffffffff1681526020019081526020016000206001016040516020016109909190611da3565b60405160208183030381529060405280519060200120145b15610a5f576001600260008673ffffffffffffffffffffffffffffffffffffffff1673ffffffffffffffffffffffffffffffffffffffff16815260200190815260200160002060030160006101000a81548160ff021916908315150217905550600260008573ffffffffffffffffffffffffffffffffffffffff1673ffffffffffffffffffffffffffffffffffffffff16815260200190815260200160002060030160009054906101000a900460ff169050610a64565b600090505b9392505050565b6000610a977f2db9fd3d099848027c2383d0a083396f6c41510d7acfd92adc99b6cffcf31e9683610e96565b9050919050565b610aa733610788565b610ae6576040517f08c379a0000000000000000000000000000000000000000000000000000000008152600401610add90611ea7565b60405180910390fd5b610b107f2db9fd3d099848027c2383d0a083396f6c41510d7acfd92adc99b6cffcf31e9682610e96565b610b3f57610b3e7f2db9fd3d099848027c2383d0a083396f6c41510d7acfd92adc99b6cffcf31e96826107f7565b5b50565b60008073ffffffffffffffffffffffffffffffffffffffff16600260008673ffffffffffffffffffffffffffffffffffffffff1673ffffffffffffffffffffffffffffffffffffffff16815260200190815260200160002060000160009054906101000a900473ffffffffffffffffffffffffffffffffffffffff1673ffffffffffffffffffffffffffffffffffffffff1614610c14576040517f08c379a0000000000000000000000000000000000000000000000000000000008152600401610c0b90611e87565b60405180910390fd5b83600260008673ffffffffffffffffffffffffffffffffffffffff1673ffffffffffffffffffffffffffffffffffffffff16815260200190815260200160002060000160006101000a81548173ffffffffffffffffffffffffffffffffffffffff021916908373ffffffffffffffffffffffffffffffffffffffff16021790555082600260008673ffffffffffffffffffffffffffffffffffffffff1673ffffffffffffffffffffffffffffffffffffffff1681526020019081526020016000206001019080519060200190610ceb929190611850565b5081604051602001610cfd9190611d8c565b60405160208183030381529060405280519060200120600260008673ffffffffffffffffffffffffffffffffffffffff1673ffffffffffffffffffffffffffffffffffffffff168152602001908152602001600020600201819055506001600260008673ffffffffffffffffffffffffffffffffffffffff1673ffffffffffffffffffffffffffffffffffffffff16815260200190815260200160002060030160006101000a81548160ff021916908315150217905550600190509392505050565b6000600260008373ffffffffffffffffffffffffffffffffffffffff1673ffffffffffffffffffffffffffffffffffffffff16815260200190815260200160002060030160006101000a81548160ff02191690831515021790555050565b610e2633610788565b610e65576040517f08c379a0000000000000000000000000000000000000000000000000000000008152600401610e5c90611ea7565b60405180910390fd5b610e726000801b82610e96565b610e8457610e836000801b826107f7565b5b50565b610e946000801b33610818565b565b600080600084815260200190815260200160002060000160008373ffffffffffffffffffffffffffffffffffffffff1673ffffffffffffffffffffffffffffffffffffffff16815260200190815260200160002060009054906101000a900460ff16905092915050565b610f0933610788565b610f48576040517f08c379a0000000000000000000000000000000000000000000000000000000008152600401610f3f90611ea7565b60405180910390fd5b610f727f2db9fd3d099848027c2383d0a083396f6c41510d7acfd92adc99b6cffcf31e9682610fd5565b50565b6000600260008373ffffffffffffffffffffffffffffffffffffffff1673ffffffffffffffffffffffffffffffffffffffff16815260200190815260200160002060030160009054906101000a900460ff169050919050565b6000801b81565b610fde82610769565b610fe7816112dc565b610ff183836113d8565b505050565b60008073ffffffffffffffffffffffffffffffffffffffff16600160008673ffffffffffffffffffffffffffffffffffffffff1673ffffffffffffffffffffffffffffffffffffffff16815260200190815260200160002060000160009054906101000a900473ffffffffffffffffffffffffffffffffffffffff1673ffffffffffffffffffffffffffffffffffffffff16146110c8576040517f08c379a00000000000000000000000000000000000000000000000000000000081526004016110bf90611e87565b60405180910390fd5b83600160008673ffffffffffffffffffffffffffffffffffffffff1673ffffffffffffffffffffffffffffffffffffffff16815260200190815260200160002060000160006101000a81548173ffffffffffffffffffffffffffffffffffffffff021916908373ffffffffffffffffffffffffffffffffffffffff16021790555082600160008673ffffffffffffffffffffffffffffffffffffffff1673ffffffffffffffffffffffffffffffffffffffff168152602001908152602001600020600101908051906020019061119f929190611850565b50816040516020016111b19190611d8c565b60405160208183030381529060405280519060200120600160008673ffffffffffffffffffffffffffffffffffffffff1673ffffffffffffffffffffffffffffffffffffffff1681526020019081526020016000206002018190555060018060008673ffffffffffffffffffffffffffffffffffffffff1673ffffffffffffffffffffffffffffffffffffffff16815260200190815260200160002060030160006101000a81548160ff021916908315150217905550600190509392505050565b60007f01ffc9a7000000000000000000000000000000000000000000000000000000007bffffffffffffffffffffffffffffffffffffffffffffffffffffffff1916827bffffffffffffffffffffffffffffffffffffffffffffffffffffffff1916149050919050565b6112ed816112e86113d0565b6114b9565b50565b6112fa8282610e96565b6113cc57600160008084815260200190815260200160002060000160008373ffffffffffffffffffffffffffffffffffffffff1673ffffffffffffffffffffffffffffffffffffffff16815260200190815260200160002060006101000a81548160ff0219169083151502179055506113716113d0565b73ffffffffffffffffffffffffffffffffffffffff168173ffffffffffffffffffffffffffffffffffffffff16837f2f8788117e7eff1d82e926ec794901d17c78024a50270940304540a733656f0d60405160405180910390a45b5050565b600033905090565b6113e28282610e96565b156114b557600080600084815260200190815260200160002060000160008373ffffffffffffffffffffffffffffffffffffffff1673ffffffffffffffffffffffffffffffffffffffff16815260200190815260200160002060006101000a81548160ff02191690831515021790555061145a6113d0565b73ffffffffffffffffffffffffffffffffffffffff168173ffffffffffffffffffffffffffffffffffffffff16837ff6391f5c32d9c69d2a47ea670b442974b53935d1edc7fd64eb21e047a839171b60405160405180910390a45b5050565b6114c38282610e96565b611552576114e88173ffffffffffffffffffffffffffffffffffffffff166014611556565b6114f68360001c6020611556565b604051602001611507929190611dba565b6040516020818303038152906040526040517f08c379a00000000000000000000000000000000000000000000000000000000081526004016115499190611e45565b60405180910390fd5b5050565b6060600060028360026115699190611fda565b6115739190611f84565b67ffffffffffffffff8111156115b2577f4e487b7100000000000000000000000000000000000000000000000000000000600052604160045260246000fd5b6040519080825280601f01601f1916602001820160405280156115e45781602001600182028036833780820191505090505b5090507f300000000000000000000000000000000000000000000000000000000000000081600081518110611642577f4e487b7100000000000000000000000000000000000000000000000000000000600052603260045260246000fd5b60200101907effffffffffffffffffffffffffffffffffffffffffffffffffffffffffffff1916908160001a9053507f7800000000000000000000000000000000000000000000000000000000000000816001815181106116cc577f4e487b7100000000000000000000000000000000000000000000000000000000600052603260045260246000fd5b60200101907effffffffffffffffffffffffffffffffffffffffffffffffffffffffffffff1916908160001a9053506000600184600261170c9190611fda565b6117169190611f84565b90505b6001811115611802577f3031323334353637383961626364656600000000000000000000000000000000600f86166010811061177e577f4e487b7100000000000000000000000000000000000000000000000000000000600052603260045260246000fd5b1a60f81b8282815181106117bb577f4e487b7100000000000000000000000000000000000000000000000000000000600052603260045260246000fd5b60200101907effffffffffffffffffffffffffffffffffffffffffffffffffffffffffffff1916908160001a905350600485901c9450806117fb906120f4565b9050611719565b5060008414611846576040517f08c379a000000000000000000000000000000000000000000000000000000000815260040161183d90611e67565b60405180910390fd5b8091505092915050565b82805461185c9061211e565b90600052602060002090601f01602090048101928261187e57600085556118c5565b82601f1061189757805160ff19168380011785556118c5565b828001600101855582156118c5579182015b828111156118c45782518255916020019190600101906118a9565b5b5090506118d291906118d6565b5090565b5b808211156118ef5760008160009055506001016118d7565b5090565b600061190661190184611f18565b611ee7565b90508281526020810184848401111561191e57600080fd5b6119298482856120b2565b509392505050565b600081359050611940816121ee565b92915050565b60008135905061195581612205565b92915050565b60008135905061196a8161221c565b92915050565b600082601f83011261198157600080fd5b81356119918482602086016118f3565b91505092915050565b6000602082840312156119ac57600080fd5b60006119ba84828501611931565b91505092915050565b6000806000606084860312156119d857600080fd5b60006119e686828701611931565b935050602084013567ffffffffffffffff811115611a0357600080fd5b611a0f86828701611970565b925050604084013567ffffffffffffffff811115611a2c57600080fd5b611a3886828701611970565b9150509250925092565b600060208284031215611a5457600080fd5b6000611a6284828501611946565b91505092915050565b60008060408385031215611a7e57600080fd5b6000611a8c85828601611946565b9250506020611a9d85828601611931565b9150509250929050565b600060208284031215611ab957600080fd5b6000611ac78482850161195b565b91505092915050565b611ad981612034565b82525050565b611ae881612046565b82525050565b611af781612052565b82525050565b6000611b0882611f5d565b611b128185611f68565b9350611b228185602086016120c1565b611b2b816121dd565b840191505092915050565b6000611b4182611f5d565b611b4b8185611f79565b9350611b5b8185602086016120c1565b80840191505092915050565b60008154611b748161211e565b611b7e8186611f79565b94506001821660008114611b995760018114611baa57611bdd565b60ff19831686528186019350611bdd565b611bb385611f48565b60005b83811015611bd557815481890152600182019150602081019050611bb6565b838801955050505b50505092915050565b6000611bf3602083611f68565b91507f537472696e67733a20686578206c656e67746820696e73756666696369656e746000830152602082019050919050565b6000611c33601283611f68565b91507f616c7265616479207265676973746572656400000000000000000000000000006000830152602082019050919050565b6000611c73601583611f68565b91507f5265737472696374656420746f2061646d696e732e00000000000000000000006000830152602082019050919050565b6000611cb3601783611f79565b91507f416363657373436f6e74726f6c3a206163636f756e74200000000000000000006000830152601782019050919050565b6000611cf3601183611f79565b91507f206973206d697373696e6720726f6c65200000000000000000000000000000006000830152601182019050919050565b6000611d33602f83611f68565b91507f416363657373436f6e74726f6c3a2063616e206f6e6c792072656e6f756e636560008301527f20726f6c657320666f722073656c6600000000000000000000000000000000006020830152604082019050919050565b6000611d988284611b36565b915081905092915050565b6000611daf8284611b67565b915081905092915050565b6000611dc582611ca6565b9150611dd18285611b36565b9150611ddc82611ce6565b9150611de88284611b36565b91508190509392505050565b6000602082019050611e096000830184611ad0565b92915050565b6000602082019050611e246000830184611adf565b92915050565b6000602082019050611e3f6000830184611aee565b92915050565b60006020820190508181036000830152611e5f8184611afd565b905092915050565b60006020820190508181036000830152611e8081611be6565b9050919050565b60006020820190508181036000830152611ea081611c26565b9050919050565b60006020820190508181036000830152611ec081611c66565b9050919050565b60006020820190508181036000830152611ee081611d26565b9050919050565b6000604051905081810181811067ffffffffffffffff82111715611f0e57611f0d6121ae565b5b8060405250919050565b600067ffffffffffffffff821115611f3357611f326121ae565b5b601f19601f8301169050602081019050919050565b60008190508160005260206000209050919050565b600081519050919050565b600082825260208201905092915050565b600081905092915050565b6000611f8f826120a8565b9150611f9a836120a8565b9250827fffffffffffffffffffffffffffffffffffffffffffffffffffffffffffffffff03821115611fcf57611fce612150565b5b828201905092915050565b6000611fe5826120a8565b9150611ff0836120a8565b9250817fffffffffffffffffffffffffffffffffffffffffffffffffffffffffffffffff048311821515161561202957612028612150565b5b828202905092915050565b600061203f82612088565b9050919050565b60008115159050919050565b6000819050919050565b60007fffffffff0000000000000000000000000000000000000000000000000000000082169050919050565b600073ffffffffffffffffffffffffffffffffffffffff82169050919050565b6000819050919050565b82818337600083830152505050565b60005b838110156120df5780820151818401526020810190506120c4565b838111156120ee576000848401525b50505050565b60006120ff826120a8565b9150600082141561211357612112612150565b5b600182039050919050565b6000600282049050600182168061213657607f821691505b6020821081141561214a5761214961217f565b5b50919050565b7f4e487b7100000000000000000000000000000000000000000000000000000000600052601160045260246000fd5b7f4e487b7100000000000000000000000000000000000000000000000000000000600052602260045260246000fd5b7f4e487b7100000000000000000000000000000000000000000000000000000000600052604160045260246000fd5b6000601f19601f8301169050919050565b6121f781612034565b811461220257600080fd5b50565b61220e81612052565b811461221957600080fd5b50565b6122258161205c565b811461223057600080fd5b5056fea2646970667358221220ecb39a7b8da497800bd939eae4eec690e535b08ff3cfeff5772e53ce3696450664736f6c63430008000033",
  "immutableReferences": {},
  "source": "// SPDX-License-Identifier: MIT\n\n/********************************************************************************************** \n* Questo smart contract implementa una configurazione tra admin e utenti:                     *\n*                                                                                             *\n* -  DEFAULT_ADMIN_ROLE  il ruolo di admin di USER (default);                                *\n* -  l'indirizzo passato al costruttore  l'admin iniziale;                                   *\n* -  gli admin possono aggiungere altri amministratori;                                       *\n* -  gli admin possono concedere e revocare le autorizzazioni utente a qualsiasi account;     *\n* -  l'unico modo per un admin di perdere il proprio ruolo di admin  di rinunciarvi.         *\n*                                                                                             *\n* Quando un utente o un admin si registrano entrambi non hanno un ruolo che verr asseggnato  *\n* in seguito dall'admin con \"addUser\" o \"addAdmin\".                                           *\n*                                                                                             *\n***********************************************************************************************/\n\npragma solidity ^0.8.0;\n\nimport \"@openzeppelin/contracts/access/AccessControl.sol\";\n\ncontract Authentication is AccessControl {\n    bytes32 public constant USER_ROLE = keccak256(\"USER\");\n    \n    struct User {\n        address addr;\n        string name;\n        bytes32 password;\n        bool isUserLoggedIn;\n    }\n\n    mapping(address => User) user;\n    mapping(address => Admin) admin;\n\n    constructor() {\n        _setupRole(DEFAULT_ADMIN_ROLE, msg.sender);\n        _setRoleAdmin(USER_ROLE, DEFAULT_ADMIN_ROLE);\n    }\n\n    /*Ristretto ai membri che hanno l'admin role.*/\n    modifier onlyAdmin(){\n        require(isAdmin(msg.sender), \"Restricted to admins.\");\n        _;\n    }\n\n    /*Ristretto ai membri che hanno l'user role.*/\n    modifier onlyUser(){\n        require(isUser(msg.sender), \"Restricted to users.\");\n        _;\n    }\n\n    /*Ritorna 'true' se l'account ha il ruolo di admin.*/\n    function isAdmin(address account) public virtual view returns (bool) {\n        return hasRole(DEFAULT_ADMIN_ROLE, account);\n    }\n    \n    /*Ritorna 'true' se l'account ha il ruolo di user.*/\n    function isUser(address account) public virtual view returns (bool) {\n        return hasRole(USER_ROLE, account);\n    }\n\n    /*Aggiunge un account con il ruolo di user (lo possono fare solo gli admin).*/\n    function addUser(address account) public virtual onlyAdmin {\n        if(!hasRole(USER_ROLE, account))\n            grantRole(USER_ROLE, account);\n    }\n\n    /*Aggiunge un account con il ruolo di admin (lo possono fare solo gli admin).*/\n    function addAdmin(address account) public virtual onlyAdmin {\n        if(!hasRole(DEFAULT_ADMIN_ROLE, account))\n            grantRole(DEFAULT_ADMIN_ROLE, account);\n    }\n\n    /*Rimuove un account dal ruolo di user (lo possono fare solo gli admin).*/\n    function removeUser(address account) public virtual onlyAdmin {\n        revokeRole(USER_ROLE, account);\n    }\n    \n    /*Un admin rinucia ad esserlo.*/\n    function renounceAdmin() public virtual {\n        renounceRole(DEFAULT_ADMIN_ROLE, msg.sender);\n    }\n\n    function getAddress() public view returns (address) {\n        return msg.sender;\n    }\n\n\n    /************************************************************************\n    * Nella funzione di registrazione dell'utente, se l'utente non si  gi  \n    * registrato i suoi dati vengono registrati sulla blockchain.\n    */\n    function registerUser(\n        address _address,\n        string memory _name,\n        string memory _password\n    ) public returns (bool) {\n        require(user[_address].addr == address(0x0000000000000000000000000000000000000000), \"already registered\");\n\n        user[_address].addr = _address;\n        user[_address].name = _name;\n        user[_address].password = keccak256(abi.encodePacked(_password));\n        user[_address].isUserLoggedIn = true;\n        return true;\n    }\n\n    /***********************************************************************\n    * La funzione di login fornisce la possibilit di accedere alla DApp   *\n    * e la modifica del campo isUserLoggedIn su true: questo significa che *\n    * l'utente accede correttamente.                                       *\n    ************************************************************************/\n    function loginUser(address _address, string memory _name, string memory _password) public returns (bool) {\n        //keccak256(abi.encodePacked(...))  usato per comparare le stringhe e richiede meno gas\n        if (user[_address].password == keccak256(abi.encodePacked(_password)) &&\n            keccak256(abi.encodePacked(user[_address].name)) == keccak256(abi.encodePacked(_name))) {\n\n            user[_address].isUserLoggedIn = true;\n            return user[_address].isUserLoggedIn;\n        } else \n            return false;\n    }\n\n    // verifica se l'utente  loggato o meno.\n    function checkIsUserLogged(address _address) public view returns (bool){\n        return user[_address].isUserLoggedIn;\n    }\n\n    // logout dell'utente\n    function logoutUser(address _address) public {\n        user[_address].isUserLoggedIn = false;\n    }\n\n\n    struct Admin {\n        address adminAddress;\n        string name;\n        bytes32 password;\n        bool isAdminLoggedIn;\n    }\n    \n    function registerAdmin(\n        address _address,\n        string memory _name,\n        string memory _password\n    ) public returns (bool) {\n        require(admin[_address].adminAddress == address(0x0000000000000000000000000000000000000000), \"already registered\");\n\n        admin[_address].adminAddress = _address;\n        admin[_address].name = _name;\n        admin[_address].password = keccak256(abi.encodePacked(_password));\n        admin[_address].isAdminLoggedIn = true;\n        return true;\n    }\n\n    function loginAdmin(address _address, string memory _name, string memory _password) public returns (bool) {\n        if (admin[_address].password == keccak256(abi.encodePacked(_password)) &&\n            keccak256(abi.encodePacked(admin[_address].name)) == keccak256(abi.encodePacked(_name))) {\n\n            admin[_address].isAdminLoggedIn = true;\n            return admin[_address].isAdminLoggedIn;\n        } else \n            return false;\n    }\n\n    // verifica se l'admin  loggato o meno.\n    function checkIsAdminLogged(address _address) public view returns (bool) {\n        return admin[_address].isAdminLoggedIn;\n    }\n\n    // logout dell'admin\n    function logoutAdmin(address _address) public {\n        admin[_address].isAdminLoggedIn = false;\n    }\n}",
  "sourcePath": "/home/alberto/Documents/Github/Blockchain-Authentication/KryptoAuth/src/main/smart contract/contracts/Authentication.sol",
  "compiler": {
    "name": "solc",
    "version": "0.8.0+commit.c7dfd78e.Emscripten.clang"
  },
  "schemaVersion": "3.4.8",
  "updatedAt": "2022-07-24T16:41:30.774Z",
  "networkType": "ethereum",
  "devdoc": {
    "kind": "dev",
    "methods": {
      "getRoleAdmin(bytes32)": {
        "details": "Returns the admin role that controls `role`. See {grantRole} and {revokeRole}. To change a role's admin, use {_setRoleAdmin}."
      },
      "grantRole(bytes32,address)": {
        "details": "Grants `role` to `account`. If `account` had not been already granted `role`, emits a {RoleGranted} event. Requirements: - the caller must have ``role``'s admin role. May emit a {RoleGranted} event."
      },
      "hasRole(bytes32,address)": {
        "details": "Returns `true` if `account` has been granted `role`."
      },
      "renounceRole(bytes32,address)": {
        "details": "Revokes `role` from the calling account. Roles are often managed via {grantRole} and {revokeRole}: this function's purpose is to provide a mechanism for accounts to lose their privileges if they are compromised (such as when a trusted device is misplaced). If the calling account had been revoked `role`, emits a {RoleRevoked} event. Requirements: - the caller must be `account`. May emit a {RoleRevoked} event."
      },
      "revokeRole(bytes32,address)": {
        "details": "Revokes `role` from `account`. If `account` had been granted `role`, emits a {RoleRevoked} event. Requirements: - the caller must have ``role``'s admin role. May emit a {RoleRevoked} event."
      },
      "supportsInterface(bytes4)": {
        "details": "See {IERC165-supportsInterface}."
      }
    },
    "version": 1
  },
  "userdoc": {
    "kind": "user",
    "methods": {},
    "version": 1
  }
}