{
  "contractName": "Authentication",
  "abi": [
    {
      "inputs": [],
      "stateMutability": "nonpayable",
      "type": "constructor"
    },
    {
      "anonymous": false,
      "inputs": [
        {
          "indexed": true,
          "internalType": "bytes32",
          "name": "role",
          "type": "bytes32"
        },
        {
          "indexed": true,
          "internalType": "bytes32",
          "name": "previousAdminRole",
          "type": "bytes32"
        },
        {
          "indexed": true,
          "internalType": "bytes32",
          "name": "newAdminRole",
          "type": "bytes32"
        }
      ],
      "name": "RoleAdminChanged",
      "type": "event"
    },
    {
      "anonymous": false,
      "inputs": [
        {
          "indexed": true,
          "internalType": "bytes32",
          "name": "role",
          "type": "bytes32"
        },
        {
          "indexed": true,
          "internalType": "address",
          "name": "account",
          "type": "address"
        },
        {
          "indexed": true,
          "internalType": "address",
          "name": "sender",
          "type": "address"
        }
      ],
      "name": "RoleGranted",
      "type": "event"
    },
    {
      "anonymous": false,
      "inputs": [
        {
          "indexed": true,
          "internalType": "bytes32",
          "name": "role",
          "type": "bytes32"
        },
        {
          "indexed": true,
          "internalType": "address",
          "name": "account",
          "type": "address"
        },
        {
          "indexed": true,
          "internalType": "address",
          "name": "sender",
          "type": "address"
        }
      ],
      "name": "RoleRevoked",
      "type": "event"
    },
    {
      "inputs": [],
      "name": "DEFAULT_ADMIN_ROLE",
      "outputs": [
        {
          "internalType": "bytes32",
          "name": "",
          "type": "bytes32"
        }
      ],
      "stateMutability": "view",
      "type": "function",
      "constant": true
    },
    {
      "inputs": [],
      "name": "USER_ROLE",
      "outputs": [
        {
          "internalType": "bytes32",
          "name": "",
          "type": "bytes32"
        }
      ],
      "stateMutability": "view",
      "type": "function",
      "constant": true
    },
    {
      "inputs": [
        {
          "internalType": "bytes32",
          "name": "role",
          "type": "bytes32"
        }
      ],
      "name": "getRoleAdmin",
      "outputs": [
        {
          "internalType": "bytes32",
          "name": "",
          "type": "bytes32"
        }
      ],
      "stateMutability": "view",
      "type": "function",
      "constant": true
    },
    {
      "inputs": [
        {
          "internalType": "bytes32",
          "name": "role",
          "type": "bytes32"
        },
        {
          "internalType": "address",
          "name": "account",
          "type": "address"
        }
      ],
      "name": "grantRole",
      "outputs": [],
      "stateMutability": "nonpayable",
      "type": "function"
    },
    {
      "inputs": [
        {
          "internalType": "bytes32",
          "name": "role",
          "type": "bytes32"
        },
        {
          "internalType": "address",
          "name": "account",
          "type": "address"
        }
      ],
      "name": "hasRole",
      "outputs": [
        {
          "internalType": "bool",
          "name": "",
          "type": "bool"
        }
      ],
      "stateMutability": "view",
      "type": "function",
      "constant": true
    },
    {
      "inputs": [
        {
          "internalType": "bytes32",
          "name": "role",
          "type": "bytes32"
        },
        {
          "internalType": "address",
          "name": "account",
          "type": "address"
        }
      ],
      "name": "renounceRole",
      "outputs": [],
      "stateMutability": "nonpayable",
      "type": "function"
    },
    {
      "inputs": [
        {
          "internalType": "bytes32",
          "name": "role",
          "type": "bytes32"
        },
        {
          "internalType": "address",
          "name": "account",
          "type": "address"
        }
      ],
      "name": "revokeRole",
      "outputs": [],
      "stateMutability": "nonpayable",
      "type": "function"
    },
    {
      "inputs": [
        {
          "internalType": "bytes4",
          "name": "interfaceId",
          "type": "bytes4"
        }
      ],
      "name": "supportsInterface",
      "outputs": [
        {
          "internalType": "bool",
          "name": "",
          "type": "bool"
        }
      ],
      "stateMutability": "view",
      "type": "function",
      "constant": true
    },
    {
      "inputs": [
        {
          "internalType": "address",
          "name": "account",
          "type": "address"
        }
      ],
      "name": "isAdmin",
      "outputs": [
        {
          "internalType": "bool",
          "name": "",
          "type": "bool"
        }
      ],
      "stateMutability": "view",
      "type": "function",
      "constant": true
    },
    {
      "inputs": [
        {
          "internalType": "address",
          "name": "account",
          "type": "address"
        }
      ],
      "name": "isUser",
      "outputs": [
        {
          "internalType": "bool",
          "name": "",
          "type": "bool"
        }
      ],
      "stateMutability": "view",
      "type": "function",
      "constant": true
    },
    {
      "inputs": [
        {
          "internalType": "address",
          "name": "account",
          "type": "address"
        }
      ],
      "name": "addUser",
      "outputs": [
        {
          "internalType": "bool",
          "name": "",
          "type": "bool"
        }
      ],
      "stateMutability": "nonpayable",
      "type": "function"
    },
    {
      "inputs": [
        {
          "internalType": "address",
          "name": "account",
          "type": "address"
        }
      ],
      "name": "addAdmin",
      "outputs": [
        {
          "internalType": "bool",
          "name": "",
          "type": "bool"
        }
      ],
      "stateMutability": "nonpayable",
      "type": "function"
    },
    {
      "inputs": [
        {
          "internalType": "address",
          "name": "account",
          "type": "address"
        }
      ],
      "name": "removeUser",
      "outputs": [
        {
          "internalType": "bool",
          "name": "",
          "type": "bool"
        }
      ],
      "stateMutability": "nonpayable",
      "type": "function"
    },
    {
      "inputs": [
        {
          "internalType": "address",
          "name": "account",
          "type": "address"
        }
      ],
      "name": "renounceAdmin",
      "outputs": [
        {
          "internalType": "bool",
          "name": "",
          "type": "bool"
        }
      ],
      "stateMutability": "nonpayable",
      "type": "function"
    },
    {
      "inputs": [],
      "name": "getAddress",
      "outputs": [
        {
          "internalType": "address",
          "name": "",
          "type": "address"
        }
      ],
      "stateMutability": "view",
      "type": "function",
      "constant": true
    },
    {
      "inputs": [
        {
          "internalType": "address",
          "name": "_address",
          "type": "address"
        },
        {
          "internalType": "string",
          "name": "_name",
          "type": "string"
        },
        {
          "internalType": "string",
          "name": "_password",
          "type": "string"
        }
      ],
      "name": "registerUser",
      "outputs": [
        {
          "internalType": "bool",
          "name": "",
          "type": "bool"
        }
      ],
      "stateMutability": "nonpayable",
      "type": "function"
    },
    {
      "inputs": [
        {
          "internalType": "address",
          "name": "_address",
          "type": "address"
        },
        {
          "internalType": "string",
          "name": "_name",
          "type": "string"
        },
        {
          "internalType": "string",
          "name": "_password",
          "type": "string"
        }
      ],
      "name": "loginUser",
      "outputs": [
        {
          "internalType": "bool",
          "name": "",
          "type": "bool"
        }
      ],
      "stateMutability": "nonpayable",
      "type": "function"
    },
    {
      "inputs": [
        {
          "internalType": "address",
          "name": "_address",
          "type": "address"
        }
      ],
      "name": "checkIsUserLogged",
      "outputs": [
        {
          "internalType": "bool",
          "name": "",
          "type": "bool"
        }
      ],
      "stateMutability": "view",
      "type": "function",
      "constant": true
    },
    {
      "inputs": [
        {
          "internalType": "address",
          "name": "_address",
          "type": "address"
        }
      ],
      "name": "logoutUser",
      "outputs": [],
      "stateMutability": "nonpayable",
      "type": "function"
    },
    {
      "inputs": [
        {
          "internalType": "address",
          "name": "_address",
          "type": "address"
        },
        {
          "internalType": "string",
          "name": "_name",
          "type": "string"
        },
        {
          "internalType": "string",
          "name": "_password",
          "type": "string"
        }
      ],
      "name": "registerAdmin",
      "outputs": [
        {
          "internalType": "bool",
          "name": "",
          "type": "bool"
        }
      ],
      "stateMutability": "nonpayable",
      "type": "function"
    },
    {
      "inputs": [
        {
          "internalType": "address",
          "name": "_address",
          "type": "address"
        },
        {
          "internalType": "string",
          "name": "_name",
          "type": "string"
        },
        {
          "internalType": "string",
          "name": "_password",
          "type": "string"
        }
      ],
      "name": "loginAdmin",
      "outputs": [
        {
          "internalType": "bool",
          "name": "",
          "type": "bool"
        }
      ],
      "stateMutability": "nonpayable",
      "type": "function"
    },
    {
      "inputs": [
        {
          "internalType": "address",
          "name": "_address",
          "type": "address"
        }
      ],
      "name": "checkIsAdminLogged",
      "outputs": [
        {
          "internalType": "bool",
          "name": "",
          "type": "bool"
        }
      ],
      "stateMutability": "view",
      "type": "function",
      "constant": true
    },
    {
      "inputs": [
        {
          "internalType": "address",
          "name": "_address",
          "type": "address"
        }
      ],
      "name": "logoutAdmin",
      "outputs": [],
      "stateMutability": "nonpayable",
      "type": "function"
    }
  ],
  "bytecode": "0x60806040523480156200001157600080fd5b50620000276000801b336200002d60201b60201c565b620001a6565b6200003f82826200004360201b60201c565b5050565b6200005582826200013460201b60201c565b6200013057600160008084815260200190815260200160002060000160008373ffffffffffffffffffffffffffffffffffffffff1673ffffffffffffffffffffffffffffffffffffffff16815260200190815260200160002060006101000a81548160ff021916908315150217905550620000d56200019e60201b60201c565b73ffffffffffffffffffffffffffffffffffffffff168173ffffffffffffffffffffffffffffffffffffffff16837f2f8788117e7eff1d82e926ec794901d17c78024a50270940304540a733656f0d60405160405180910390a45b5050565b600080600084815260200190815260200160002060000160008373ffffffffffffffffffffffffffffffffffffffff1673ffffffffffffffffffffffffffffffffffffffff16815260200190815260200160002060009054906101000a900460ff16905092915050565b600033905090565b6123df80620001b66000396000f3fe608060405234801561001057600080fd5b506004361061014d5760003560e01c80634209fff1116100c357806391d148541161007c57806391d148541461040e578063985751881461043e57806398711c171461046e578063a217fddf1461049e578063d547741f146104bc578063db0c87c9146104d85761014d565b80634209fff114610302578063421b2d8b146103325780634ad407a3146103625780635e1fab0f14610392578063645cf80f146103c257806370480275146103de5761014d565b806324d7806c1161011557806324d7806c1461021c578063297f7b391461024c5780632f2ff15d1461027c57806336568abe1461029857806338cc4831146102b457806340f1128b146102d25761014d565b806301ffc9a71461015257806306f22b041461018257806309df5060146101b257806313119161146101ce578063248a9ca3146101ec575b600080fd5b61016c60048036038101906101679190611c1d565b610508565b6040516101799190611f85565b60405180910390f35b61019c60048036038101906101979190611b39565b610582565b6040516101a99190611f85565b60405180910390f35b6101cc60048036038101906101c79190611b10565b61075a565b005b6101d66107b8565b6040516101e39190611fa0565b60405180910390f35b61020660048036038101906102019190611bb8565b6107dc565b6040516102139190611fa0565b60405180910390f35b61023660048036038101906102319190611b10565b6107fb565b6040516102439190611f85565b60405180910390f35b61026660048036038101906102619190611b10565b610811565b6040516102739190611f85565b60405180910390f35b61029660048036038101906102919190611be1565b61086a565b005b6102b260048036038101906102ad9190611be1565b61088b565b005b6102bc61090e565b6040516102c99190611f6a565b60405180910390f35b6102ec60048036038101906102e79190611b39565b610916565b6040516102f99190611f85565b60405180910390f35b61031c60048036038101906103179190611b10565b610aef565b6040516103299190611f85565b60405180910390f35b61034c60048036038101906103479190611b10565b610b22565b6040516103599190611f85565b60405180910390f35b61037c60048036038101906103779190611b39565b610bef565b6040516103899190611f85565b60405180910390f35b6103ac60048036038101906103a79190611b10565b610e6c565b6040516103b99190611f85565b60405180910390f35b6103dc60048036038101906103d79190611b10565b610ee8565b005b6103f860048036038101906103f39190611b10565b610f46565b6040516104059190611f85565b60405180910390f35b61042860048036038101906104239190611be1565b610fcb565b6040516104359190611f85565b60405180910390f35b61045860048036038101906104539190611b10565b611035565b6040516104659190611f85565b60405180910390f35b61048860048036038101906104839190611b10565b6110eb565b6040516104959190611f85565b60405180910390f35b6104a6611144565b6040516104b39190611fa0565b60405180910390f35b6104d660048036038101906104d19190611be1565b61114b565b005b6104f260048036038101906104ed9190611b39565b61116c565b6040516104ff9190611f85565b60405180910390f35b60007f7965db0b000000000000000000000000000000000000000000000000000000007bffffffffffffffffffffffffffffffffffffffffffffffffffffffff1916827bffffffffffffffffffffffffffffffffffffffffffffffffffffffff1916148061057b575061057a826113e8565b5b9050919050565b600061058d84610aef565b80156106005750816040516020016105a59190611f02565b60405160208183030381529060405280519060200120600160008673ffffffffffffffffffffffffffffffffffffffff1673ffffffffffffffffffffffffffffffffffffffff16815260200190815260200160002060020154145b80156106985750826040516020016106189190611f02565b60405160208183030381529060405280519060200120600160008673ffffffffffffffffffffffffffffffffffffffff1673ffffffffffffffffffffffffffffffffffffffff1681526020019081526020016000206001016040516020016106809190611f19565b60405160208183030381529060405280519060200120145b1561074e5760018060008673ffffffffffffffffffffffffffffffffffffffff1673ffffffffffffffffffffffffffffffffffffffff16815260200190815260200160002060030160006101000a81548160ff021916908315150217905550600160008573ffffffffffffffffffffffffffffffffffffffff1673ffffffffffffffffffffffffffffffffffffffff16815260200190815260200160002060030160009054906101000a900460ff169050610753565b600090505b9392505050565b6000600160008373ffffffffffffffffffffffffffffffffffffffff1673ffffffffffffffffffffffffffffffffffffffff16815260200190815260200160002060030160006101000a81548160ff02191690831515021790555050565b7f2db9fd3d099848027c2383d0a083396f6c41510d7acfd92adc99b6cffcf31e9681565b6000806000838152602001908152602001600020600101549050919050565b600061080a6000801b83610fcb565b9050919050565b6000600160008373ffffffffffffffffffffffffffffffffffffffff1673ffffffffffffffffffffffffffffffffffffffff16815260200190815260200160002060030160009054906101000a900460ff169050919050565b610873826107dc565b61087c81611452565b6108868383611466565b505050565b610893611546565b73ffffffffffffffffffffffffffffffffffffffff168173ffffffffffffffffffffffffffffffffffffffff1614610900576040517f08c379a00000000000000000000000000000000000000000000000000000000081526004016108f79061203d565b60405180910390fd5b61090a828261154e565b5050565b600033905090565b6000610921846107fb565b80156109945750816040516020016109399190611f02565b60405160208183030381529060405280519060200120600260008673ffffffffffffffffffffffffffffffffffffffff1673ffffffffffffffffffffffffffffffffffffffff16815260200190815260200160002060020154145b8015610a2c5750826040516020016109ac9190611f02565b60405160208183030381529060405280519060200120600260008673ffffffffffffffffffffffffffffffffffffffff1673ffffffffffffffffffffffffffffffffffffffff168152602001908152602001600020600101604051602001610a149190611f19565b60405160208183030381529060405280519060200120145b15610ae3576001600260008673ffffffffffffffffffffffffffffffffffffffff1673ffffffffffffffffffffffffffffffffffffffff16815260200190815260200160002060030160006101000a81548160ff021916908315150217905550600260008573ffffffffffffffffffffffffffffffffffffffff1673ffffffffffffffffffffffffffffffffffffffff16815260200190815260200160002060030160009054906101000a900460ff169050610ae8565b600090505b9392505050565b6000610b1b7f2db9fd3d099848027c2383d0a083396f6c41510d7acfd92adc99b6cffcf31e9683610fcb565b9050919050565b6000610b2d336107fb565b610b6c576040517f08c379a0000000000000000000000000000000000000000000000000000000008152600401610b639061201d565b60405180910390fd5b610b967f2db9fd3d099848027c2383d0a083396f6c41510d7acfd92adc99b6cffcf31e9683610fcb565b158015610bad5750610bab6000801b83610fcb565b155b15610be557610bdc7f2db9fd3d099848027c2383d0a083396f6c41510d7acfd92adc99b6cffcf31e968361086a565b60019050610bea565b600090505b919050565b60008073ffffffffffffffffffffffffffffffffffffffff16600260008673ffffffffffffffffffffffffffffffffffffffff1673ffffffffffffffffffffffffffffffffffffffff16815260200190815260200160002060000160009054906101000a900473ffffffffffffffffffffffffffffffffffffffff1673ffffffffffffffffffffffffffffffffffffffff1614610cc1576040517f08c379a0000000000000000000000000000000000000000000000000000000008152600401610cb890611ffd565b60405180910390fd5b83600260008673ffffffffffffffffffffffffffffffffffffffff1673ffffffffffffffffffffffffffffffffffffffff16815260200190815260200160002060000160006101000a81548173ffffffffffffffffffffffffffffffffffffffff021916908373ffffffffffffffffffffffffffffffffffffffff16021790555082600260008673ffffffffffffffffffffffffffffffffffffffff1673ffffffffffffffffffffffffffffffffffffffff1681526020019081526020016000206001019080519060200190610d989291906119c6565b5081604051602001610daa9190611f02565b60405160208183030381529060405280519060200120600260008673ffffffffffffffffffffffffffffffffffffffff1673ffffffffffffffffffffffffffffffffffffffff168152602001908152602001600020600201819055506001600260008673ffffffffffffffffffffffffffffffffffffffff1673ffffffffffffffffffffffffffffffffffffffff16815260200190815260200160002060030160006101000a81548160ff021916908315150217905550600190509392505050565b6000610e77336107fb565b610eb6576040517f08c379a0000000000000000000000000000000000000000000000000000000008152600401610ead9061201d565b60405180910390fd5b610ec36000801b83610fcb565b15610ede57610ed56000801b8361088b565b60019050610ee3565b600090505b919050565b6000600260008373ffffffffffffffffffffffffffffffffffffffff1673ffffffffffffffffffffffffffffffffffffffff16815260200190815260200160002060030160006101000a81548160ff02191690831515021790555050565b6000610f51336107fb565b610f90576040517f08c379a0000000000000000000000000000000000000000000000000000000008152600401610f879061201d565b60405180910390fd5b610f9d6000801b83610fcb565b610fc157610faa82611035565b50610fb86000801b8361086a565b60019050610fc6565b600090505b919050565b600080600084815260200190815260200160002060000160008373ffffffffffffffffffffffffffffffffffffffff1673ffffffffffffffffffffffffffffffffffffffff16815260200190815260200160002060009054906101000a900460ff16905092915050565b6000611040336107fb565b61107f576040517f08c379a00000000000000000000000000000000000000000000000000000000081526004016110769061201d565b60405180910390fd5b6110a97f2db9fd3d099848027c2383d0a083396f6c41510d7acfd92adc99b6cffcf31e9683610fcb565b156110e1576110d87f2db9fd3d099848027c2383d0a083396f6c41510d7acfd92adc99b6cffcf31e968361114b565b600190506110e6565b600090505b919050565b6000600260008373ffffffffffffffffffffffffffffffffffffffff1673ffffffffffffffffffffffffffffffffffffffff16815260200190815260200160002060030160009054906101000a900460ff169050919050565b6000801b81565b611154826107dc565b61115d81611452565b611167838361154e565b505050565b60008073ffffffffffffffffffffffffffffffffffffffff16600160008673ffffffffffffffffffffffffffffffffffffffff1673ffffffffffffffffffffffffffffffffffffffff16815260200190815260200160002060000160009054906101000a900473ffffffffffffffffffffffffffffffffffffffff1673ffffffffffffffffffffffffffffffffffffffff161461123e576040517f08c379a000000000000000000000000000000000000000000000000000000000815260040161123590611ffd565b60405180910390fd5b83600160008673ffffffffffffffffffffffffffffffffffffffff1673ffffffffffffffffffffffffffffffffffffffff16815260200190815260200160002060000160006101000a81548173ffffffffffffffffffffffffffffffffffffffff021916908373ffffffffffffffffffffffffffffffffffffffff16021790555082600160008673ffffffffffffffffffffffffffffffffffffffff1673ffffffffffffffffffffffffffffffffffffffff16815260200190815260200160002060010190805190602001906113159291906119c6565b50816040516020016113279190611f02565b60405160208183030381529060405280519060200120600160008673ffffffffffffffffffffffffffffffffffffffff1673ffffffffffffffffffffffffffffffffffffffff1681526020019081526020016000206002018190555060018060008673ffffffffffffffffffffffffffffffffffffffff1673ffffffffffffffffffffffffffffffffffffffff16815260200190815260200160002060030160006101000a81548160ff021916908315150217905550600190509392505050565b60007f01ffc9a7000000000000000000000000000000000000000000000000000000007bffffffffffffffffffffffffffffffffffffffffffffffffffffffff1916827bffffffffffffffffffffffffffffffffffffffffffffffffffffffff1916149050919050565b6114638161145e611546565b61162f565b50565b6114708282610fcb565b61154257600160008084815260200190815260200160002060000160008373ffffffffffffffffffffffffffffffffffffffff1673ffffffffffffffffffffffffffffffffffffffff16815260200190815260200160002060006101000a81548160ff0219169083151502179055506114e7611546565b73ffffffffffffffffffffffffffffffffffffffff168173ffffffffffffffffffffffffffffffffffffffff16837f2f8788117e7eff1d82e926ec794901d17c78024a50270940304540a733656f0d60405160405180910390a45b5050565b600033905090565b6115588282610fcb565b1561162b57600080600084815260200190815260200160002060000160008373ffffffffffffffffffffffffffffffffffffffff1673ffffffffffffffffffffffffffffffffffffffff16815260200190815260200160002060006101000a81548160ff0219169083151502179055506115d0611546565b73ffffffffffffffffffffffffffffffffffffffff168173ffffffffffffffffffffffffffffffffffffffff16837ff6391f5c32d9c69d2a47ea670b442974b53935d1edc7fd64eb21e047a839171b60405160405180910390a45b5050565b6116398282610fcb565b6116c85761165e8173ffffffffffffffffffffffffffffffffffffffff1660146116cc565b61166c8360001c60206116cc565b60405160200161167d929190611f30565b6040516020818303038152906040526040517f08c379a00000000000000000000000000000000000000000000000000000000081526004016116bf9190611fbb565b60405180910390fd5b5050565b6060600060028360026116df9190612150565b6116e991906120fa565b67ffffffffffffffff811115611728577f4e487b7100000000000000000000000000000000000000000000000000000000600052604160045260246000fd5b6040519080825280601f01601f19166020018201604052801561175a5781602001600182028036833780820191505090505b5090507f3000000000000000000000000000000000000000000000000000000000000000816000815181106117b8577f4e487b7100000000000000000000000000000000000000000000000000000000600052603260045260246000fd5b60200101907effffffffffffffffffffffffffffffffffffffffffffffffffffffffffffff1916908160001a9053507f780000000000000000000000000000000000000000000000000000000000000081600181518110611842577f4e487b7100000000000000000000000000000000000000000000000000000000600052603260045260246000fd5b60200101907effffffffffffffffffffffffffffffffffffffffffffffffffffffffffffff1916908160001a905350600060018460026118829190612150565b61188c91906120fa565b90505b6001811115611978577f3031323334353637383961626364656600000000000000000000000000000000600f8616601081106118f4577f4e487b7100000000000000000000000000000000000000000000000000000000600052603260045260246000fd5b1a60f81b828281518110611931577f4e487b7100000000000000000000000000000000000000000000000000000000600052603260045260246000fd5b60200101907effffffffffffffffffffffffffffffffffffffffffffffffffffffffffffff1916908160001a905350600485901c9450806119719061226a565b905061188f565b50600084146119bc576040517f08c379a00000000000000000000000000000000000000000000000000000000081526004016119b390611fdd565b60405180910390fd5b8091505092915050565b8280546119d290612294565b90600052602060002090601f0160209004810192826119f45760008555611a3b565b82601f10611a0d57805160ff1916838001178555611a3b565b82800160010185558215611a3b579182015b82811115611a3a578251825591602001919060010190611a1f565b5b509050611a489190611a4c565b5090565b5b80821115611a65576000816000905550600101611a4d565b5090565b6000611a7c611a778461208e565b61205d565b905082815260208101848484011115611a9457600080fd5b611a9f848285612228565b509392505050565b600081359050611ab681612364565b92915050565b600081359050611acb8161237b565b92915050565b600081359050611ae081612392565b92915050565b600082601f830112611af757600080fd5b8135611b07848260208601611a69565b91505092915050565b600060208284031215611b2257600080fd5b6000611b3084828501611aa7565b91505092915050565b600080600060608486031215611b4e57600080fd5b6000611b5c86828701611aa7565b935050602084013567ffffffffffffffff811115611b7957600080fd5b611b8586828701611ae6565b925050604084013567ffffffffffffffff811115611ba257600080fd5b611bae86828701611ae6565b9150509250925092565b600060208284031215611bca57600080fd5b6000611bd884828501611abc565b91505092915050565b60008060408385031215611bf457600080fd5b6000611c0285828601611abc565b9250506020611c1385828601611aa7565b9150509250929050565b600060208284031215611c2f57600080fd5b6000611c3d84828501611ad1565b91505092915050565b611c4f816121aa565b82525050565b611c5e816121bc565b82525050565b611c6d816121c8565b82525050565b6000611c7e826120d3565b611c8881856120de565b9350611c98818560208601612237565b611ca181612353565b840191505092915050565b6000611cb7826120d3565b611cc181856120ef565b9350611cd1818560208601612237565b80840191505092915050565b60008154611cea81612294565b611cf481866120ef565b94506001821660008114611d0f5760018114611d2057611d53565b60ff19831686528186019350611d53565b611d29856120be565b60005b83811015611d4b57815481890152600182019150602081019050611d2c565b838801955050505b50505092915050565b6000611d696020836120de565b91507f537472696e67733a20686578206c656e67746820696e73756666696369656e746000830152602082019050919050565b6000611da96012836120de565b91507f616c7265616479207265676973746572656400000000000000000000000000006000830152602082019050919050565b6000611de96015836120de565b91507f5265737472696374656420746f2061646d696e732e00000000000000000000006000830152602082019050919050565b6000611e296017836120ef565b91507f416363657373436f6e74726f6c3a206163636f756e74200000000000000000006000830152601782019050919050565b6000611e696011836120ef565b91507f206973206d697373696e6720726f6c65200000000000000000000000000000006000830152601182019050919050565b6000611ea9602f836120de565b91507f416363657373436f6e74726f6c3a2063616e206f6e6c792072656e6f756e636560008301527f20726f6c657320666f722073656c6600000000000000000000000000000000006020830152604082019050919050565b6000611f0e8284611cac565b915081905092915050565b6000611f258284611cdd565b915081905092915050565b6000611f3b82611e1c565b9150611f478285611cac565b9150611f5282611e5c565b9150611f5e8284611cac565b91508190509392505050565b6000602082019050611f7f6000830184611c46565b92915050565b6000602082019050611f9a6000830184611c55565b92915050565b6000602082019050611fb56000830184611c64565b92915050565b60006020820190508181036000830152611fd58184611c73565b905092915050565b60006020820190508181036000830152611ff681611d5c565b9050919050565b6000602082019050818103600083015261201681611d9c565b9050919050565b6000602082019050818103600083015261203681611ddc565b9050919050565b6000602082019050818103600083015261205681611e9c565b9050919050565b6000604051905081810181811067ffffffffffffffff8211171561208457612083612324565b5b8060405250919050565b600067ffffffffffffffff8211156120a9576120a8612324565b5b601f19601f8301169050602081019050919050565b60008190508160005260206000209050919050565b600081519050919050565b600082825260208201905092915050565b600081905092915050565b60006121058261221e565b91506121108361221e565b9250827fffffffffffffffffffffffffffffffffffffffffffffffffffffffffffffffff03821115612145576121446122c6565b5b828201905092915050565b600061215b8261221e565b91506121668361221e565b9250817fffffffffffffffffffffffffffffffffffffffffffffffffffffffffffffffff048311821515161561219f5761219e6122c6565b5b828202905092915050565b60006121b5826121fe565b9050919050565b60008115159050919050565b6000819050919050565b60007fffffffff0000000000000000000000000000000000000000000000000000000082169050919050565b600073ffffffffffffffffffffffffffffffffffffffff82169050919050565b6000819050919050565b82818337600083830152505050565b60005b8381101561225557808201518184015260208101905061223a565b83811115612264576000848401525b50505050565b60006122758261221e565b91506000821415612289576122886122c6565b5b600182039050919050565b600060028204905060018216806122ac57607f821691505b602082108114156122c0576122bf6122f5565b5b50919050565b7f4e487b7100000000000000000000000000000000000000000000000000000000600052601160045260246000fd5b7f4e487b7100000000000000000000000000000000000000000000000000000000600052602260045260246000fd5b7f4e487b7100000000000000000000000000000000000000000000000000000000600052604160045260246000fd5b6000601f19601f8301169050919050565b61236d816121aa565b811461237857600080fd5b50565b612384816121c8565b811461238f57600080fd5b50565b61239b816121d2565b81146123a657600080fd5b5056fea2646970667358221220f65c6e72b44b24ed0bfe1fb45a54b3c6ffef2c8bcc4a723986af33b8567af9f564736f6c63430008000033",
  "immutableReferences": {},
  "source": "// SPDX-License-Identifier: MIT\n\n/********************************************************************************************** \n* Questo smart contract implementa una configurazione tra admin e utenti:                     *\n*                                                                                             *\n* -  DEFAULT_ADMIN_ROLE  il ruolo di admin di USER (default);                                *\n* -  l'indirizzo passato al costruttore  l'admin iniziale;                                   *\n* -  gli admin possono aggiungere altri amministratori;                                       *\n* -  gli admin possono concedere e revocare le autorizzazioni utente a qualsiasi account;     *\n* -  l'unico modo per un admin di perdere il proprio ruolo di admin  di rinunciarvi.         *\n*                                                                                             *\n* Quando un utente o un admin si registrano entrambi non hanno un ruolo che verr asseggnato  *\n* in seguito dall'admin con \"addUser\" o \"addAdmin\".                                           *\n*                                                                                             *\n***********************************************************************************************/\n\npragma solidity ^0.8.0;\n\nimport \"@openzeppelin/contracts/access/AccessControl.sol\";\n\ncontract Authentication is AccessControl {\n    bytes32 public constant USER_ROLE = keccak256(\"USER\");\n    \n    struct User {\n        address addr;\n        string name;\n        bytes32 password;\n        bool isUserLoggedIn;\n    }\n\n    mapping(address => User) user;\n    mapping(address => Admin) admin;\n\n    constructor() {\n        _setupRole(DEFAULT_ADMIN_ROLE, msg.sender);\n        //_setRoleAdmin(USER_ROLE, DEFAULT_ADMIN_ROLE);\n    }\n\n    /*Ristretto ai membri che hanno l'admin role.*/\n    modifier onlyAdmin(){\n        require(isAdmin(msg.sender), \"Restricted to admins.\");\n        _;\n    }\n\n    /*Ristretto ai membri che hanno l'user role.*/\n    modifier onlyUser(){\n        require(isUser(msg.sender), \"Restricted to users.\");\n        _;\n    }\n\n    /*Ritorna 'true' se l'account ha il ruolo di admin.*/\n    function isAdmin(address account) public virtual view returns (bool) {\n        return hasRole(DEFAULT_ADMIN_ROLE, account);\n    }\n    \n    /*Ritorna 'true' se l'account ha il ruolo di user.*/\n    function isUser(address account) public virtual view returns (bool) {\n        return hasRole(USER_ROLE, account);\n    }\n\n    /*Aggiunge un account con il ruolo di user (lo possono fare solo gli admin).*/\n    function addUser(address account) public virtual onlyAdmin returns (bool){\n        if(!hasRole(USER_ROLE, account) &&\n            !hasRole(DEFAULT_ADMIN_ROLE, account)){\n            grantRole(USER_ROLE, account);\n            return true;\n        } return false;\n    }\n\n    /*Aggiunge un account con il ruolo di admin (lo possono fare solo gli admin).*/\n    function addAdmin(address account) public virtual onlyAdmin returns (bool){\n        if(!hasRole(DEFAULT_ADMIN_ROLE, account)){\n            removeUser(account);\n            grantRole(DEFAULT_ADMIN_ROLE, account);\n            return true;\n        } return false;\n    }\n\n    /*Rimuove un account dal ruolo di user (lo possono fare solo gli admin).*/\n    function removeUser(address account) public virtual onlyAdmin returns (bool){\n        if(hasRole(USER_ROLE, account)){\n            revokeRole(USER_ROLE, account);\n            return true;\n        } return false;\n    }\n\n    /*Un admin rinucia ad esserlo.*/\n    function renounceAdmin(address account) public virtual onlyAdmin returns (bool){\n        if(hasRole(DEFAULT_ADMIN_ROLE, account)){\n            renounceRole(DEFAULT_ADMIN_ROLE, account);\n            return true;\n        } return false;\n    }\n\n    function getAddress() public view returns (address) {\n        return msg.sender;\n    }\n\n    /************************************************************************\n    * Nella funzione di registrazione dell'utente, se l'utente non si  gi  \n    * registrato i suoi dati vengono registrati sulla blockchain.\n    */\n    function registerUser(\n        address _address,\n        string memory _name,\n        string memory _password\n    ) public returns (bool) {\n        require(user[_address].addr == address(0x0000000000000000000000000000000000000000), \"already registered\");\n\n        user[_address].addr = _address;\n        user[_address].name = _name;\n        user[_address].password = keccak256(abi.encodePacked(_password));\n        user[_address].isUserLoggedIn = true;\n        return true;\n    }\n\n    /***********************************************************************\n    * La funzione di login fornisce la possibilit di accedere alla DApp   *\n    * e la modifica del campo isUserLoggedIn su true: questo significa che *\n    * l'utente accede correttamente.                                       *\n    ************************************************************************/\n    function loginUser(address _address, string memory _name, string memory _password) public returns (bool) {\n        //keccak256(abi.encodePacked(...))  usato per comparare le stringhe e richiede meno gas\n        if (isUser(_address) && user[_address].password == keccak256(abi.encodePacked(_password)) &&\n            keccak256(abi.encodePacked(user[_address].name)) == keccak256(abi.encodePacked(_name))) {\n\n            user[_address].isUserLoggedIn = true;\n            return user[_address].isUserLoggedIn;\n        } else \n            return false;\n    }\n\n    // verifica se l'utente  loggato o meno.\n    function checkIsUserLogged(address _address) public view returns (bool){\n        return user[_address].isUserLoggedIn;\n    }\n\n    // logout dell'utente\n    function logoutUser(address _address) public {\n        user[_address].isUserLoggedIn = false;\n    }\n\n\n    struct Admin {\n        address adminAddress;\n        string name;\n        bytes32 password;\n        bool isAdminLoggedIn;\n    }\n\n    function registerAdmin(\n        address _address,\n        string memory _name,\n        string memory _password\n    ) public returns (bool) {\n        require(admin[_address].adminAddress == address(0x0000000000000000000000000000000000000000), \"already registered\");\n\n        admin[_address].adminAddress = _address;\n        admin[_address].name = _name;\n        admin[_address].password = keccak256(abi.encodePacked(_password));\n        admin[_address].isAdminLoggedIn = true;\n        return true;\n    }\n\n    function loginAdmin(address _address, string memory _name, string memory _password) public returns (bool) {\n        if (isAdmin(_address) && admin[_address].password == keccak256(abi.encodePacked(_password)) &&\n            keccak256(abi.encodePacked(admin[_address].name)) == keccak256(abi.encodePacked(_name))) {\n\n            admin[_address].isAdminLoggedIn = true;\n            return admin[_address].isAdminLoggedIn;\n        } else \n            return false;\n    }\n\n    // verifica se l'admin  loggato o meno.\n    function checkIsAdminLogged(address _address) public view returns (bool) {\n        return admin[_address].isAdminLoggedIn;\n    }\n\n    // logout dell'admin\n    function logoutAdmin(address _address) public {\n        admin[_address].isAdminLoggedIn = false;\n    }\n}",
  "sourcePath": "/home/alberto/Documents/Github/Blockchain-Authentication/KryptoAuth/src/main/smart contract/contracts/Authentication.sol",
  "compiler": {
    "name": "solc",
    "version": "0.8.0+commit.c7dfd78e.Emscripten.clang"
  },
  "schemaVersion": "3.4.8",
  "updatedAt": "2022-07-27T14:59:15.793Z",
  "networkType": "ethereum",
  "devdoc": {
    "kind": "dev",
    "methods": {
      "getRoleAdmin(bytes32)": {
        "details": "Returns the admin role that controls `role`. See {grantRole} and {revokeRole}. To change a role's admin, use {_setRoleAdmin}."
      },
      "grantRole(bytes32,address)": {
        "details": "Grants `role` to `account`. If `account` had not been already granted `role`, emits a {RoleGranted} event. Requirements: - the caller must have ``role``'s admin role. May emit a {RoleGranted} event."
      },
      "hasRole(bytes32,address)": {
        "details": "Returns `true` if `account` has been granted `role`."
      },
      "renounceRole(bytes32,address)": {
        "details": "Revokes `role` from the calling account. Roles are often managed via {grantRole} and {revokeRole}: this function's purpose is to provide a mechanism for accounts to lose their privileges if they are compromised (such as when a trusted device is misplaced). If the calling account had been revoked `role`, emits a {RoleRevoked} event. Requirements: - the caller must be `account`. May emit a {RoleRevoked} event."
      },
      "revokeRole(bytes32,address)": {
        "details": "Revokes `role` from `account`. If `account` had been granted `role`, emits a {RoleRevoked} event. Requirements: - the caller must have ``role``'s admin role. May emit a {RoleRevoked} event."
      },
      "supportsInterface(bytes4)": {
        "details": "See {IERC165-supportsInterface}."
      }
    },
    "version": 1
  },
  "userdoc": {
    "kind": "user",
    "methods": {},
    "version": 1
  }
}