{
  "contractName": "Authentication",
  "abi": [
    {
      "inputs": [],
      "stateMutability": "nonpayable",
      "type": "constructor"
    },
    {
      "anonymous": false,
      "inputs": [
        {
          "indexed": true,
          "internalType": "bytes32",
          "name": "role",
          "type": "bytes32"
        },
        {
          "indexed": true,
          "internalType": "bytes32",
          "name": "previousAdminRole",
          "type": "bytes32"
        },
        {
          "indexed": true,
          "internalType": "bytes32",
          "name": "newAdminRole",
          "type": "bytes32"
        }
      ],
      "name": "RoleAdminChanged",
      "type": "event"
    },
    {
      "anonymous": false,
      "inputs": [
        {
          "indexed": true,
          "internalType": "bytes32",
          "name": "role",
          "type": "bytes32"
        },
        {
          "indexed": true,
          "internalType": "address",
          "name": "account",
          "type": "address"
        },
        {
          "indexed": true,
          "internalType": "address",
          "name": "sender",
          "type": "address"
        }
      ],
      "name": "RoleGranted",
      "type": "event"
    },
    {
      "anonymous": false,
      "inputs": [
        {
          "indexed": true,
          "internalType": "bytes32",
          "name": "role",
          "type": "bytes32"
        },
        {
          "indexed": true,
          "internalType": "address",
          "name": "account",
          "type": "address"
        },
        {
          "indexed": true,
          "internalType": "address",
          "name": "sender",
          "type": "address"
        }
      ],
      "name": "RoleRevoked",
      "type": "event"
    },
    {
      "inputs": [],
      "name": "DEFAULT_ADMIN_ROLE",
      "outputs": [
        {
          "internalType": "bytes32",
          "name": "",
          "type": "bytes32"
        }
      ],
      "stateMutability": "view",
      "type": "function",
      "constant": true
    },
    {
      "inputs": [],
      "name": "USER_ROLE",
      "outputs": [
        {
          "internalType": "bytes32",
          "name": "",
          "type": "bytes32"
        }
      ],
      "stateMutability": "view",
      "type": "function",
      "constant": true
    },
    {
      "inputs": [
        {
          "internalType": "bytes32",
          "name": "role",
          "type": "bytes32"
        }
      ],
      "name": "getRoleAdmin",
      "outputs": [
        {
          "internalType": "bytes32",
          "name": "",
          "type": "bytes32"
        }
      ],
      "stateMutability": "view",
      "type": "function",
      "constant": true
    },
    {
      "inputs": [
        {
          "internalType": "bytes32",
          "name": "role",
          "type": "bytes32"
        },
        {
          "internalType": "address",
          "name": "account",
          "type": "address"
        }
      ],
      "name": "grantRole",
      "outputs": [],
      "stateMutability": "nonpayable",
      "type": "function"
    },
    {
      "inputs": [
        {
          "internalType": "bytes32",
          "name": "role",
          "type": "bytes32"
        },
        {
          "internalType": "address",
          "name": "account",
          "type": "address"
        }
      ],
      "name": "hasRole",
      "outputs": [
        {
          "internalType": "bool",
          "name": "",
          "type": "bool"
        }
      ],
      "stateMutability": "view",
      "type": "function",
      "constant": true
    },
    {
      "inputs": [
        {
          "internalType": "bytes32",
          "name": "role",
          "type": "bytes32"
        },
        {
          "internalType": "address",
          "name": "account",
          "type": "address"
        }
      ],
      "name": "renounceRole",
      "outputs": [],
      "stateMutability": "nonpayable",
      "type": "function"
    },
    {
      "inputs": [
        {
          "internalType": "bytes32",
          "name": "role",
          "type": "bytes32"
        },
        {
          "internalType": "address",
          "name": "account",
          "type": "address"
        }
      ],
      "name": "revokeRole",
      "outputs": [],
      "stateMutability": "nonpayable",
      "type": "function"
    },
    {
      "inputs": [
        {
          "internalType": "bytes4",
          "name": "interfaceId",
          "type": "bytes4"
        }
      ],
      "name": "supportsInterface",
      "outputs": [
        {
          "internalType": "bool",
          "name": "",
          "type": "bool"
        }
      ],
      "stateMutability": "view",
      "type": "function",
      "constant": true
    },
    {
      "inputs": [
        {
          "internalType": "address",
          "name": "account",
          "type": "address"
        }
      ],
      "name": "isAdmin",
      "outputs": [
        {
          "internalType": "bool",
          "name": "",
          "type": "bool"
        }
      ],
      "stateMutability": "view",
      "type": "function",
      "constant": true
    },
    {
      "inputs": [
        {
          "internalType": "address",
          "name": "account",
          "type": "address"
        }
      ],
      "name": "isUser",
      "outputs": [
        {
          "internalType": "bool",
          "name": "",
          "type": "bool"
        }
      ],
      "stateMutability": "view",
      "type": "function",
      "constant": true
    },
    {
      "inputs": [
        {
          "internalType": "address",
          "name": "account",
          "type": "address"
        }
      ],
      "name": "addUser",
      "outputs": [
        {
          "internalType": "bool",
          "name": "",
          "type": "bool"
        }
      ],
      "stateMutability": "nonpayable",
      "type": "function"
    },
    {
      "inputs": [
        {
          "internalType": "address",
          "name": "account",
          "type": "address"
        }
      ],
      "name": "addAdmin",
      "outputs": [
        {
          "internalType": "bool",
          "name": "",
          "type": "bool"
        }
      ],
      "stateMutability": "nonpayable",
      "type": "function"
    },
    {
      "inputs": [
        {
          "internalType": "address",
          "name": "account",
          "type": "address"
        }
      ],
      "name": "removeUser",
      "outputs": [
        {
          "internalType": "bool",
          "name": "",
          "type": "bool"
        }
      ],
      "stateMutability": "nonpayable",
      "type": "function"
    },
    {
      "inputs": [
        {
          "internalType": "address",
          "name": "account",
          "type": "address"
        }
      ],
      "name": "renounceAdmin",
      "outputs": [
        {
          "internalType": "bool",
          "name": "",
          "type": "bool"
        }
      ],
      "stateMutability": "nonpayable",
      "type": "function"
    },
    {
      "inputs": [],
      "name": "getAddress",
      "outputs": [
        {
          "internalType": "address",
          "name": "",
          "type": "address"
        }
      ],
      "stateMutability": "view",
      "type": "function",
      "constant": true
    },
    {
      "inputs": [
        {
          "internalType": "address",
          "name": "_address",
          "type": "address"
        },
        {
          "internalType": "string",
          "name": "_name",
          "type": "string"
        },
        {
          "internalType": "string",
          "name": "_password",
          "type": "string"
        }
      ],
      "name": "registerUser",
      "outputs": [
        {
          "internalType": "bool",
          "name": "",
          "type": "bool"
        }
      ],
      "stateMutability": "nonpayable",
      "type": "function"
    },
    {
      "inputs": [
        {
          "internalType": "address",
          "name": "_address",
          "type": "address"
        },
        {
          "internalType": "string",
          "name": "_name",
          "type": "string"
        },
        {
          "internalType": "string",
          "name": "_password",
          "type": "string"
        }
      ],
      "name": "loginUser",
      "outputs": [
        {
          "internalType": "bool",
          "name": "",
          "type": "bool"
        }
      ],
      "stateMutability": "view",
      "type": "function",
      "constant": true
    },
    {
      "inputs": [
        {
          "internalType": "address",
          "name": "_address",
          "type": "address"
        },
        {
          "internalType": "string",
          "name": "_name",
          "type": "string"
        },
        {
          "internalType": "string",
          "name": "_password",
          "type": "string"
        }
      ],
      "name": "registerAdmin",
      "outputs": [
        {
          "internalType": "bool",
          "name": "",
          "type": "bool"
        }
      ],
      "stateMutability": "nonpayable",
      "type": "function"
    },
    {
      "inputs": [
        {
          "internalType": "address",
          "name": "_address",
          "type": "address"
        },
        {
          "internalType": "string",
          "name": "_name",
          "type": "string"
        },
        {
          "internalType": "string",
          "name": "_password",
          "type": "string"
        }
      ],
      "name": "loginAdmin",
      "outputs": [
        {
          "internalType": "bool",
          "name": "",
          "type": "bool"
        }
      ],
      "stateMutability": "view",
      "type": "function",
      "constant": true
    }
  ],
  "bytecode": "0x60806040523480156200001157600080fd5b50620000276000801b336200006260201b60201c565b6200005c7f2db9fd3d099848027c2383d0a083396f6c41510d7acfd92adc99b6cffcf31e966000801b6200007860201b60201c565b6200025d565b620000748282620000db60201b60201c565b5050565b60006200008b83620001cc60201b60201c565b905081600080858152602001908152602001600020600101819055508181847fbd79b86ffe0ab8e8776151514217cd7cacd52c909f66475c3af44e129f0b00ff60405160405180910390a4505050565b620000ed8282620001eb60201b60201c565b620001c857600160008084815260200190815260200160002060000160008373ffffffffffffffffffffffffffffffffffffffff1673ffffffffffffffffffffffffffffffffffffffff16815260200190815260200160002060006101000a81548160ff0219169083151502179055506200016d6200025560201b60201c565b73ffffffffffffffffffffffffffffffffffffffff168173ffffffffffffffffffffffffffffffffffffffff16837f2f8788117e7eff1d82e926ec794901d17c78024a50270940304540a733656f0d60405160405180910390a45b5050565b6000806000838152602001908152602001600020600101549050919050565b600080600084815260200190815260200160002060000160008373ffffffffffffffffffffffffffffffffffffffff1673ffffffffffffffffffffffffffffffffffffffff16815260200190815260200160002060009054906101000a900460ff16905092915050565b600033905090565b612131806200026d6000396000f3fe608060405234801561001057600080fd5b50600436106101215760003560e01c80634209fff1116100ad57806391d148541161007157806391d148541461037a57806398575188146103aa578063a217fddf146103da578063d547741f146103f8578063db0c87c91461041457610121565b80634209fff11461028a578063421b2d8b146102ba5780634ad407a3146102ea5780635e1fab0f1461031a578063704802751461034a57610121565b806324d7806c116100f457806324d7806c146101d45780632f2ff15d1461020457806336568abe1461022057806338cc48311461023c57806340f1128b1461025a57610121565b806301ffc9a71461012657806306f22b04146101565780631311916114610186578063248a9ca3146101a4575b600080fd5b610140600480360381019061013b919061196f565b610444565b60405161014d9190611cd7565b60405180910390f35b610170600480360381019061016b919061188b565b6104be565b60405161017d9190611cd7565b60405180910390f35b61018e6105ee565b60405161019b9190611cf2565b60405180910390f35b6101be60048036038101906101b9919061190a565b610612565b6040516101cb9190611cf2565b60405180910390f35b6101ee60048036038101906101e99190611862565b610631565b6040516101fb9190611cd7565b60405180910390f35b61021e60048036038101906102199190611933565b610647565b005b61023a60048036038101906102359190611933565b610668565b005b6102446106eb565b6040516102519190611cbc565b60405180910390f35b610274600480360381019061026f919061188b565b6106f3565b6040516102819190611cd7565b60405180910390f35b6102a4600480360381019061029f9190611862565b610823565b6040516102b19190611cd7565b60405180910390f35b6102d460048036038101906102cf9190611862565b610856565b6040516102e19190611cd7565b60405180910390f35b61030460048036038101906102ff919061188b565b61090b565b6040516103119190611cd7565b60405180910390f35b610334600480360381019061032f9190611862565b610bfe565b6040516103419190611cd7565b60405180910390f35b610364600480360381019061035f9190611862565b610c7a565b6040516103719190611cd7565b60405180910390f35b610394600480360381019061038f9190611933565b610cff565b6040516103a19190611cd7565b60405180910390f35b6103c460048036038101906103bf9190611862565b610d69565b6040516103d19190611cd7565b60405180910390f35b6103e2610e1f565b6040516103ef9190611cf2565b60405180910390f35b610412600480360381019061040d9190611933565b610e26565b005b61042e6004803603810190610429919061188b565b610e47565b60405161043b9190611cd7565b60405180910390f35b60007f7965db0b000000000000000000000000000000000000000000000000000000007bffffffffffffffffffffffffffffffffffffffffffffffffffffffff1916827bffffffffffffffffffffffffffffffffffffffffffffffffffffffff191614806104b757506104b68261113a565b5b9050919050565b60006104c984610823565b801561053c5750816040516020016104e19190611c54565b60405160208183030381529060405280519060200120600160008673ffffffffffffffffffffffffffffffffffffffff1673ffffffffffffffffffffffffffffffffffffffff16815260200190815260200160002060020154145b80156105d45750826040516020016105549190611c54565b60405160208183030381529060405280519060200120600160008673ffffffffffffffffffffffffffffffffffffffff1673ffffffffffffffffffffffffffffffffffffffff1681526020019081526020016000206001016040516020016105bc9190611c6b565b60405160208183030381529060405280519060200120145b156105e257600190506105e7565b600090505b9392505050565b7f2db9fd3d099848027c2383d0a083396f6c41510d7acfd92adc99b6cffcf31e9681565b6000806000838152602001908152602001600020600101549050919050565b60006106406000801b83610cff565b9050919050565b61065082610612565b610659816111a4565b61066383836111b8565b505050565b610670611298565b73ffffffffffffffffffffffffffffffffffffffff168173ffffffffffffffffffffffffffffffffffffffff16146106dd576040517f08c379a00000000000000000000000000000000000000000000000000000000081526004016106d490611d8f565b60405180910390fd5b6106e782826112a0565b5050565b600033905090565b60006106fe84610631565b80156107715750816040516020016107169190611c54565b60405160208183030381529060405280519060200120600260008673ffffffffffffffffffffffffffffffffffffffff1673ffffffffffffffffffffffffffffffffffffffff16815260200190815260200160002060020154145b80156108095750826040516020016107899190611c54565b60405160208183030381529060405280519060200120600260008673ffffffffffffffffffffffffffffffffffffffff1673ffffffffffffffffffffffffffffffffffffffff1681526020019081526020016000206001016040516020016107f19190611c6b565b60405160208183030381529060405280519060200120145b15610817576001905061081c565b600090505b9392505050565b600061084f7f2db9fd3d099848027c2383d0a083396f6c41510d7acfd92adc99b6cffcf31e9683610cff565b9050919050565b600061086133610631565b6108a0576040517f08c379a000000000000000000000000000000000000000000000000000000000815260040161089790611d6f565b60405180910390fd5b6108ca7f2db9fd3d099848027c2383d0a083396f6c41510d7acfd92adc99b6cffcf31e9683610cff565b610901576108f87f2db9fd3d099848027c2383d0a083396f6c41510d7acfd92adc99b6cffcf31e9683610647565b60019050610906565b600090505b919050565b60008073ffffffffffffffffffffffffffffffffffffffff16600260008673ffffffffffffffffffffffffffffffffffffffff1673ffffffffffffffffffffffffffffffffffffffff16815260200190815260200160002060000160009054906101000a900473ffffffffffffffffffffffffffffffffffffffff1673ffffffffffffffffffffffffffffffffffffffff16146109dd576040517f08c379a00000000000000000000000000000000000000000000000000000000081526004016109d490611d4f565b60405180910390fd5b600073ffffffffffffffffffffffffffffffffffffffff16600160008673ffffffffffffffffffffffffffffffffffffffff1673ffffffffffffffffffffffffffffffffffffffff16815260200190815260200160002060000160009054906101000a900473ffffffffffffffffffffffffffffffffffffffff1673ffffffffffffffffffffffffffffffffffffffff1614610aae576040517f08c379a0000000000000000000000000000000000000000000000000000000008152600401610aa590611d4f565b60405180910390fd5b83600260008673ffffffffffffffffffffffffffffffffffffffff1673ffffffffffffffffffffffffffffffffffffffff16815260200190815260200160002060000160006101000a81548173ffffffffffffffffffffffffffffffffffffffff021916908373ffffffffffffffffffffffffffffffffffffffff16021790555082600260008673ffffffffffffffffffffffffffffffffffffffff1673ffffffffffffffffffffffffffffffffffffffff1681526020019081526020016000206001019080519060200190610b85929190611718565b5081604051602001610b979190611c54565b60405160208183030381529060405280519060200120600260008673ffffffffffffffffffffffffffffffffffffffff1673ffffffffffffffffffffffffffffffffffffffff16815260200190815260200160002060020181905550600190509392505050565b6000610c0933610631565b610c48576040517f08c379a0000000000000000000000000000000000000000000000000000000008152600401610c3f90611d6f565b60405180910390fd5b610c556000801b83610cff565b15610c7057610c676000801b83610668565b60019050610c75565b600090505b919050565b6000610c8533610631565b610cc4576040517f08c379a0000000000000000000000000000000000000000000000000000000008152600401610cbb90611d6f565b60405180910390fd5b610cd16000801b83610cff565b610cf557610cde82610d69565b50610cec6000801b83610647565b60019050610cfa565b600090505b919050565b600080600084815260200190815260200160002060000160008373ffffffffffffffffffffffffffffffffffffffff1673ffffffffffffffffffffffffffffffffffffffff16815260200190815260200160002060009054906101000a900460ff16905092915050565b6000610d7433610631565b610db3576040517f08c379a0000000000000000000000000000000000000000000000000000000008152600401610daa90611d6f565b60405180910390fd5b610ddd7f2db9fd3d099848027c2383d0a083396f6c41510d7acfd92adc99b6cffcf31e9683610cff565b15610e1557610e0c7f2db9fd3d099848027c2383d0a083396f6c41510d7acfd92adc99b6cffcf31e9683610e26565b60019050610e1a565b600090505b919050565b6000801b81565b610e2f82610612565b610e38816111a4565b610e4283836112a0565b505050565b60008073ffffffffffffffffffffffffffffffffffffffff16600160008673ffffffffffffffffffffffffffffffffffffffff1673ffffffffffffffffffffffffffffffffffffffff16815260200190815260200160002060000160009054906101000a900473ffffffffffffffffffffffffffffffffffffffff1673ffffffffffffffffffffffffffffffffffffffff1614610f19576040517f08c379a0000000000000000000000000000000000000000000000000000000008152600401610f1090611d4f565b60405180910390fd5b600073ffffffffffffffffffffffffffffffffffffffff16600260008673ffffffffffffffffffffffffffffffffffffffff1673ffffffffffffffffffffffffffffffffffffffff16815260200190815260200160002060000160009054906101000a900473ffffffffffffffffffffffffffffffffffffffff1673ffffffffffffffffffffffffffffffffffffffff1614610fea576040517f08c379a0000000000000000000000000000000000000000000000000000000008152600401610fe190611d4f565b60405180910390fd5b83600160008673ffffffffffffffffffffffffffffffffffffffff1673ffffffffffffffffffffffffffffffffffffffff16815260200190815260200160002060000160006101000a81548173ffffffffffffffffffffffffffffffffffffffff021916908373ffffffffffffffffffffffffffffffffffffffff16021790555082600160008673ffffffffffffffffffffffffffffffffffffffff1673ffffffffffffffffffffffffffffffffffffffff16815260200190815260200160002060010190805190602001906110c1929190611718565b50816040516020016110d39190611c54565b60405160208183030381529060405280519060200120600160008673ffffffffffffffffffffffffffffffffffffffff1673ffffffffffffffffffffffffffffffffffffffff16815260200190815260200160002060020181905550600190509392505050565b60007f01ffc9a7000000000000000000000000000000000000000000000000000000007bffffffffffffffffffffffffffffffffffffffffffffffffffffffff1916827bffffffffffffffffffffffffffffffffffffffffffffffffffffffff1916149050919050565b6111b5816111b0611298565b611381565b50565b6111c28282610cff565b61129457600160008084815260200190815260200160002060000160008373ffffffffffffffffffffffffffffffffffffffff1673ffffffffffffffffffffffffffffffffffffffff16815260200190815260200160002060006101000a81548160ff021916908315150217905550611239611298565b73ffffffffffffffffffffffffffffffffffffffff168173ffffffffffffffffffffffffffffffffffffffff16837f2f8788117e7eff1d82e926ec794901d17c78024a50270940304540a733656f0d60405160405180910390a45b5050565b600033905090565b6112aa8282610cff565b1561137d57600080600084815260200190815260200160002060000160008373ffffffffffffffffffffffffffffffffffffffff1673ffffffffffffffffffffffffffffffffffffffff16815260200190815260200160002060006101000a81548160ff021916908315150217905550611322611298565b73ffffffffffffffffffffffffffffffffffffffff168173ffffffffffffffffffffffffffffffffffffffff16837ff6391f5c32d9c69d2a47ea670b442974b53935d1edc7fd64eb21e047a839171b60405160405180910390a45b5050565b61138b8282610cff565b61141a576113b08173ffffffffffffffffffffffffffffffffffffffff16601461141e565b6113be8360001c602061141e565b6040516020016113cf929190611c82565b6040516020818303038152906040526040517f08c379a00000000000000000000000000000000000000000000000000000000081526004016114119190611d0d565b60405180910390fd5b5050565b6060600060028360026114319190611ea2565b61143b9190611e4c565b67ffffffffffffffff81111561147a577f4e487b7100000000000000000000000000000000000000000000000000000000600052604160045260246000fd5b6040519080825280601f01601f1916602001820160405280156114ac5781602001600182028036833780820191505090505b5090507f30000000000000000000000000000000000000000000000000000000000000008160008151811061150a577f4e487b7100000000000000000000000000000000000000000000000000000000600052603260045260246000fd5b60200101907effffffffffffffffffffffffffffffffffffffffffffffffffffffffffffff1916908160001a9053507f780000000000000000000000000000000000000000000000000000000000000081600181518110611594577f4e487b7100000000000000000000000000000000000000000000000000000000600052603260045260246000fd5b60200101907effffffffffffffffffffffffffffffffffffffffffffffffffffffffffffff1916908160001a905350600060018460026115d49190611ea2565b6115de9190611e4c565b90505b60018111156116ca577f3031323334353637383961626364656600000000000000000000000000000000600f861660108110611646577f4e487b7100000000000000000000000000000000000000000000000000000000600052603260045260246000fd5b1a60f81b828281518110611683577f4e487b7100000000000000000000000000000000000000000000000000000000600052603260045260246000fd5b60200101907effffffffffffffffffffffffffffffffffffffffffffffffffffffffffffff1916908160001a905350600485901c9450806116c390611fbc565b90506115e1565b506000841461170e576040517f08c379a000000000000000000000000000000000000000000000000000000000815260040161170590611d2f565b60405180910390fd5b8091505092915050565b82805461172490611fe6565b90600052602060002090601f016020900481019282611746576000855561178d565b82601f1061175f57805160ff191683800117855561178d565b8280016001018555821561178d579182015b8281111561178c578251825591602001919060010190611771565b5b50905061179a919061179e565b5090565b5b808211156117b757600081600090555060010161179f565b5090565b60006117ce6117c984611de0565b611daf565b9050828152602081018484840111156117e657600080fd5b6117f1848285611f7a565b509392505050565b600081359050611808816120b6565b92915050565b60008135905061181d816120cd565b92915050565b600081359050611832816120e4565b92915050565b600082601f83011261184957600080fd5b81356118598482602086016117bb565b91505092915050565b60006020828403121561187457600080fd5b6000611882848285016117f9565b91505092915050565b6000806000606084860312156118a057600080fd5b60006118ae868287016117f9565b935050602084013567ffffffffffffffff8111156118cb57600080fd5b6118d786828701611838565b925050604084013567ffffffffffffffff8111156118f457600080fd5b61190086828701611838565b9150509250925092565b60006020828403121561191c57600080fd5b600061192a8482850161180e565b91505092915050565b6000806040838503121561194657600080fd5b60006119548582860161180e565b9250506020611965858286016117f9565b9150509250929050565b60006020828403121561198157600080fd5b600061198f84828501611823565b91505092915050565b6119a181611efc565b82525050565b6119b081611f0e565b82525050565b6119bf81611f1a565b82525050565b60006119d082611e25565b6119da8185611e30565b93506119ea818560208601611f89565b6119f3816120a5565b840191505092915050565b6000611a0982611e25565b611a138185611e41565b9350611a23818560208601611f89565b80840191505092915050565b60008154611a3c81611fe6565b611a468186611e41565b94506001821660008114611a615760018114611a7257611aa5565b60ff19831686528186019350611aa5565b611a7b85611e10565b60005b83811015611a9d57815481890152600182019150602081019050611a7e565b838801955050505b50505092915050565b6000611abb602083611e30565b91507f537472696e67733a20686578206c656e67746820696e73756666696369656e746000830152602082019050919050565b6000611afb601283611e30565b91507f616c7265616479207265676973746572656400000000000000000000000000006000830152602082019050919050565b6000611b3b601583611e30565b91507f5265737472696374656420746f2061646d696e732e00000000000000000000006000830152602082019050919050565b6000611b7b601783611e41565b91507f416363657373436f6e74726f6c3a206163636f756e74200000000000000000006000830152601782019050919050565b6000611bbb601183611e41565b91507f206973206d697373696e6720726f6c65200000000000000000000000000000006000830152601182019050919050565b6000611bfb602f83611e30565b91507f416363657373436f6e74726f6c3a2063616e206f6e6c792072656e6f756e636560008301527f20726f6c657320666f722073656c6600000000000000000000000000000000006020830152604082019050919050565b6000611c6082846119fe565b915081905092915050565b6000611c778284611a2f565b915081905092915050565b6000611c8d82611b6e565b9150611c9982856119fe565b9150611ca482611bae565b9150611cb082846119fe565b91508190509392505050565b6000602082019050611cd16000830184611998565b92915050565b6000602082019050611cec60008301846119a7565b92915050565b6000602082019050611d0760008301846119b6565b92915050565b60006020820190508181036000830152611d2781846119c5565b905092915050565b60006020820190508181036000830152611d4881611aae565b9050919050565b60006020820190508181036000830152611d6881611aee565b9050919050565b60006020820190508181036000830152611d8881611b2e565b9050919050565b60006020820190508181036000830152611da881611bee565b9050919050565b6000604051905081810181811067ffffffffffffffff82111715611dd657611dd5612076565b5b8060405250919050565b600067ffffffffffffffff821115611dfb57611dfa612076565b5b601f19601f8301169050602081019050919050565b60008190508160005260206000209050919050565b600081519050919050565b600082825260208201905092915050565b600081905092915050565b6000611e5782611f70565b9150611e6283611f70565b9250827fffffffffffffffffffffffffffffffffffffffffffffffffffffffffffffffff03821115611e9757611e96612018565b5b828201905092915050565b6000611ead82611f70565b9150611eb883611f70565b9250817fffffffffffffffffffffffffffffffffffffffffffffffffffffffffffffffff0483118215151615611ef157611ef0612018565b5b828202905092915050565b6000611f0782611f50565b9050919050565b60008115159050919050565b6000819050919050565b60007fffffffff0000000000000000000000000000000000000000000000000000000082169050919050565b600073ffffffffffffffffffffffffffffffffffffffff82169050919050565b6000819050919050565b82818337600083830152505050565b60005b83811015611fa7578082015181840152602081019050611f8c565b83811115611fb6576000848401525b50505050565b6000611fc782611f70565b91506000821415611fdb57611fda612018565b5b600182039050919050565b60006002820490506001821680611ffe57607f821691505b6020821081141561201257612011612047565b5b50919050565b7f4e487b7100000000000000000000000000000000000000000000000000000000600052601160045260246000fd5b7f4e487b7100000000000000000000000000000000000000000000000000000000600052602260045260246000fd5b7f4e487b7100000000000000000000000000000000000000000000000000000000600052604160045260246000fd5b6000601f19601f8301169050919050565b6120bf81611efc565b81146120ca57600080fd5b50565b6120d681611f1a565b81146120e157600080fd5b50565b6120ed81611f24565b81146120f857600080fd5b5056fea26469706673582212204ebc2c6c4508335d7ff8c31cba5d56624518ae9cee01c4f27474fdf8af21803b64736f6c63430008000033",
  "immutableReferences": {},
  "source": "// SPDX-License-Identifier: MIT\n\n/********************************************************************************************** \n* Questo smart contract implementa una configurazione tra admin e utenti:                     *\n*                                                                                             *\n* -  DEFAULT_ADMIN_ROLE  il ruolo di admin di USER (default);                                *\n* -  l'indirizzo passato al costruttore  l'admin iniziale;                                   *\n* -  gli admin possono aggiungere altri amministratori;                                       *\n* -  gli admin possono concedere e revocare le autorizzazioni utente a qualsiasi account;     *\n* -  l'unico modo per un admin di perdere il proprio ruolo di admin  di rinunciarvi.         *\n*                                                                                             *\n* Quando un utente o un admin si registrano entrambi non hanno un ruolo che verr asseggnato  *\n* in seguito dall'admin con \"addUser\" o \"addAdmin\".                                           *\n*                                                                                             *\n***********************************************************************************************/\n\npragma solidity ^0.8.0;\n\nimport \"@openzeppelin/contracts/access/AccessControl.sol\";\n\ncontract Authentication is AccessControl {\n    bytes32 public constant USER_ROLE = keccak256(\"USER\");\n    \n    struct User {\n        address addr;\n        string name;\n        bytes32 password;\n    }\n\n    struct Admin {\n        address adminAddress;\n        string name;\n        bytes32 password;\n    }\n\n    mapping(address => User) user;\n    mapping(address => Admin) admin;\n\n    constructor() {\n        _setupRole(DEFAULT_ADMIN_ROLE, msg.sender);\n        _setRoleAdmin(USER_ROLE, DEFAULT_ADMIN_ROLE);\n    }\n\n    /*Ristretto ai membri che hanno l'admin role.*/\n    modifier onlyAdmin(){\n        require(isAdmin(msg.sender), \"Restricted to admins.\");\n        _;\n    }\n\n    /*Ristretto ai membri che hanno l'user role.*/\n    modifier onlyUser(){\n        require(isUser(msg.sender), \"Restricted to users.\");\n        _;\n    }\n\n    /*Ritorna 'true' se l'account ha il ruolo di admin.*/\n    function isAdmin(address account) public virtual view returns (bool) {\n        return hasRole(DEFAULT_ADMIN_ROLE, account);\n    }\n    \n    /*Ritorna 'true' se l'account ha il ruolo di user.*/\n    function isUser(address account) public virtual view returns (bool) {\n        return hasRole(USER_ROLE, account);\n    }\n\n    /*Aggiunge un account con il ruolo di user (lo possono fare solo gli admin).*/\n    function addUser(address account) public virtual onlyAdmin returns (bool){\n        if(!hasRole(USER_ROLE, account)){\n            grantRole(USER_ROLE, account);\n            return true;\n        } return false;\n    }\n\n    /*Aggiunge un account con il ruolo di admin (lo possono fare solo gli admin).*/\n    function addAdmin(address account) public virtual onlyAdmin returns (bool){\n        if(!hasRole(DEFAULT_ADMIN_ROLE, account)){\n            removeUser(account);\n            grantRole(DEFAULT_ADMIN_ROLE, account);\n            return true;\n        } return false;\n    }\n\n    /*Rimuove un account dal ruolo di user (lo possono fare solo gli admin).*/\n    function removeUser(address account) public virtual onlyAdmin returns (bool){\n        if(hasRole(USER_ROLE, account)){\n            revokeRole(USER_ROLE, account);\n            return true;\n        } return false;\n    }\n\n    /*Un admin rinucia ad esserlo.*/\n    function renounceAdmin(address account) public virtual onlyAdmin returns (bool){\n        if(hasRole(DEFAULT_ADMIN_ROLE, account)){\n            renounceRole(DEFAULT_ADMIN_ROLE, account);\n            return true;\n        } return false;\n    }\n\n    function getAddress() public view returns (address) {\n        return msg.sender;\n    }\n\n    /************************************************************************\n    * Nella funzione di registrazione dell'utente, se l'utente non si  gi  \n    * registrato i suoi dati vengono registrati sulla blockchain.\n    */\n    function registerUser(\n        address _address,\n        string memory _name,\n        string memory _password\n    ) public returns (bool) {\n        require(user[_address].addr == address(0x0000000000000000000000000000000000000000), \"already registered\");\n        require(admin[_address].adminAddress == address(0x0000000000000000000000000000000000000000), \"already registered\");\n\n        user[_address].addr = _address;\n        user[_address].name = _name;\n        user[_address].password = keccak256(abi.encodePacked(_password));\n        return true;\n    }\n\n    /***********************************************************************\n    * La funzione di login fornisce la possibilit di accedere alla DApp   *\n    * e la modifica del campo isUserLoggedIn su true: questo significa che *\n    * l'utente accede correttamente.                                       *\n    ************************************************************************/\n    function loginUser(address _address, string memory _name, string memory _password) public view returns (bool) {\n        //keccak256(abi.encodePacked(...))  usato per comparare le stringhe e richiede meno gas\n        if (isUser(_address) && user[_address].password == keccak256(abi.encodePacked(_password)) &&\n            keccak256(abi.encodePacked(user[_address].name)) == keccak256(abi.encodePacked(_name))) {\n            return true;\n        }\n        return false;\n    }\n\n\n    function registerAdmin(\n        address _address,\n        string memory _name,\n        string memory _password\n    ) public returns (bool) {\n        require(admin[_address].adminAddress == address(0x0000000000000000000000000000000000000000), \"already registered\");\n        require(user[_address].addr == address(0x0000000000000000000000000000000000000000), \"already registered\");\n\n        admin[_address].adminAddress = _address;\n        admin[_address].name = _name;\n        admin[_address].password = keccak256(abi.encodePacked(_password));\n        return true;\n    }\n\n    function loginAdmin(address _address, string memory _name, string memory _password) public view returns (bool) {\n        if (isAdmin(_address) && admin[_address].password == keccak256(abi.encodePacked(_password)) &&\n            keccak256(abi.encodePacked(admin[_address].name)) == keccak256(abi.encodePacked(_name))) {\n            return true;\n        }\n        return false;\n    }\n}",
  "sourcePath": "/home/alberto/Documents/Github/Blockchain-Authentication/KryptoAuth/src/main/smart contract/contracts/Authentication.sol",
  "compiler": {
    "name": "solc",
    "version": "0.8.0+commit.c7dfd78e.Emscripten.clang"
  },
  "schemaVersion": "3.4.8",
  "updatedAt": "2022-07-27T21:29:15.974Z",
  "networkType": "ethereum",
  "devdoc": {
    "kind": "dev",
    "methods": {
      "getRoleAdmin(bytes32)": {
        "details": "Returns the admin role that controls `role`. See {grantRole} and {revokeRole}. To change a role's admin, use {_setRoleAdmin}."
      },
      "grantRole(bytes32,address)": {
        "details": "Grants `role` to `account`. If `account` had not been already granted `role`, emits a {RoleGranted} event. Requirements: - the caller must have ``role``'s admin role. May emit a {RoleGranted} event."
      },
      "hasRole(bytes32,address)": {
        "details": "Returns `true` if `account` has been granted `role`."
      },
      "renounceRole(bytes32,address)": {
        "details": "Revokes `role` from the calling account. Roles are often managed via {grantRole} and {revokeRole}: this function's purpose is to provide a mechanism for accounts to lose their privileges if they are compromised (such as when a trusted device is misplaced). If the calling account had been revoked `role`, emits a {RoleRevoked} event. Requirements: - the caller must be `account`. May emit a {RoleRevoked} event."
      },
      "revokeRole(bytes32,address)": {
        "details": "Revokes `role` from `account`. If `account` had been granted `role`, emits a {RoleRevoked} event. Requirements: - the caller must have ``role``'s admin role. May emit a {RoleRevoked} event."
      },
      "supportsInterface(bytes4)": {
        "details": "See {IERC165-supportsInterface}."
      }
    },
    "version": 1
  },
  "userdoc": {
    "kind": "user",
    "methods": {},
    "version": 1
  }
}